S01F00002E2F67725F6275696C642F6B7572756D695F736B657463682E6D6F7410
S1050000E173A6
S1130004F16FFD6F0970157021702D7053705F705E
S11300148570AB70D170F77003710F7135715B71BA
S11300248171A771CD71F3711972257261726D7248
S113003479729F72C572EB72FFFFFFFFFFFFF772C5
S11300441D7343736973757381738D739973A57386
S1130054B173FFFFFFFFFFFFFFFFBD73FFFFC97312
S1130064FFFFFFFFFFFFFFFFFFFFFFFFFFFFFFFF98
S10F0074FFFFFFFFFFFFFFFFFFFFD5733E
S10700C0EFFFE885DD
S10D00C4000000000000000000002E
S10700D8ECE17300E0
S11300DC0000000000000000000000000000000010
S11300EC0000000000000000000000000000000000
S11300FC00000000000000000000000000000000F0
S113010C00000000000000000000000000000000DF
S11304A40000FFFF180017001600FF00FFFFFFFF06
S11304B4204E00000000FD84676A00000000000074
S11304C40000000000000000000000000000000024
S11304D4000000000000FFFF000000000000020014
S11304E400000000D0AFD0AFD4AFD4AFD8AFD8AFF2
S11304F4DCAFDCAFE0AFE0AFE4AFE4AFE8AFE8AF6C
S1130504ECAFECAFF0AFF0AFF4AFF4AFF8AFF8AFDB
S1130514FCAFFCAF00B000B004B004B008B008B045
S11305240CB00CB010B010B014B014B018B018B0B3
S11305341CB01CB020B020B024B024B028B028B023
S11305442CB02CB030B030B034B034B038B038B093
S11305543CB03CB040B040B044B044B048B048B003
S11305644CB04CB050B050B054B054B058B058B073
S11305745CB05CB060B060B064B064B068B068B0E3
S11305846CB06CB070B070B074B074B078B078B053
S11305947CB07CB080B080B084B084B088B088B0C3
S11305A48CB08CB090B090B094B094B098B098B033
S11305B49CB09CB0A0B0A0B0A4B0A4B0A8B0A8B0A3
S11305C4ACB0ACB0B0B0B0B0B4B0B4B0B8B0B8B013
S11305D4BCB0BCB0C0B0C0B0C4B0C4B0C8B0C8B083
S11305E4CCB0CCB0D0B0D0B0D4B0D4B0D8B0D8B0F3
S11305F4DCB0DCB0E0B0E0B0E4B0E4B0E8B0E8B063
S1130604ECB0ECB0F0B0F0B0F4B0F4B0F8B0F8B0D2
S1130614FCB0FCB000B100B104B104B108B108B13C
S11306240CB10CB110B110B114B114B118B118B1AA
S11306341CB11CB120B120B124B124B128B128B11A
S11306442CB12CB130B130B134B134B138B138B18A
S11306543CB13CB140B140B144B144B148B148B1FA
S11306644CB14CB150B150B154B154B158B158B16A
S11306745CB15CB160B160B164B164B168B168B1DA
S11306846CB16CB170B170B174B174B178B178B14A
S11306947CB17CB180B180B184B184B188B188B1BA
S11306A48CB18CB190B190B194B194B198B198B12A
S11306B49CB19CB1A0B1A0B1A4B1A4B1A8B1A8B19A
S11306C4ACB1ACB1B0B1B0B1B4B1B4B1B8B1B8B10A
S11306D4BCB1BCB1C0B1C0B1C4B1C4B1C8B1C8B17A
S11306E4CCB1CCB1D6B1000080B3BCB3F8B3000034
S11306F400000000000000000000000000000000F2
S1130704000000000000000000000000543300005A
S113071400000000000000000000000000000000D1
S113072400000000000000000000000000000000C1
S113073400000000000000000000000000000000B1
S113074400000000000000000000000000000000A1
S113075401000000000000000E33CDAB34126DE63E
S1130764ECDE05000B0000000000000000000000A7
S11307740000000000000000000000000000000071
S11307840000000000000000000000000000000061
S11307940000000000000000000000000000000051
S11307A40000000000000000000000000000000041
S11307B40000000000000000000000000000000031
S11307C40000000000000000000000000000000021
S11307D40000000000000000000000000000000011
S11307E40000000000000000000000000000000001
S11307F400000000000000000000000000000000F1
S113080400000000000000000000000000000000E0
S113081400000000000000000000000000000000D0
S113082400000000000000000000000000000000C0
S113083400000000000000000000000000000000B0
S113084400000000000000000000000000000000A0
S11308540000000000000000000000000000000090
S11308640000000000000000000000000000000080
S11308740000000000000000000000000000000070
S11308840000000000000000000000000000000060
S11308940000000000000000000000000000000050
S11308A40000000000000000000000000000000040
S11308B40000000000000000000000000000000030
S11308C40000000000000000000000000000000020
S11308D40000000000000000000000000000000010
S11308E40000000000000000000000000000000000
S11308F400000000000000000000000000000000F0
S113090400000000000000000000000000000000DF
S113091400000000000000000000000000000000CF
S113092400000000000000000000000000000000BF
S113093400000000000000000000000000000000AF
S107094400000000AB
S113300048656C6C6F002C000201E00021FF310068
S11330104100510001FF0402E00021FF31004100A2
S1133020510001FF0100E00023FF3300430053007F
S113303003FF4006010021FF31004100510001FF60
S11330400201E00023FF33004300530003FF200587
S1133050020021FF31004100510001FF010007007F
S113306021FF31004100510001FF0100E00020FF79
S113307030004000500000FF0201E00020FF30005B
S11330804000500000FF0803040021FF310041000C
S1133090510001FF1004030021FF310041005100E1
S11330A001FF0402E00027FF37004700570007FF35
S11330B00201E00027FF37004700570007FF010027
S11330C0E00027FF37004700570007FF0402E00035
S11330D022FF32004200520002FF0803E00022FFF8
S11330E032004200520002FF1004E00022FF3200CE
S11330F04200520002FF2005E00022FF320042009D
S1133100520002FF4006E00022FF3200420052005B
S113311002FF8007E00022FF32004200520002FF5B
S11331208007E0002EFF3E004E005E000EFF01000F
S1133130E0002CFF3C004C005C000CFF8007E0002A
S113314021FF31004100510001FF0201E00025FF91
S113315035004500550005FF0100E00025FF35005E
S11331604500550005FF34326C31CA313653747250
S113317065616D00313448617264776172655365CD
S11331807269616C0000343274316631000086313A
S113319073395A41BE382039E338933A7232A03138
S11331A0395072696E7461626C65003949504164CA
S11331B06472657373003432AB319C310000B631F4
S11331C07640355072696E7400007232C2313653E3
S11331D06446696C65003432CE31CA310000D631A0
S11331E003615A413754776F57697265000034326E
S11331F0E43166310000EE31DE69716909692069E4
S11332004A6970694E31305F5F63787861626976CC
S11332103132305F5F73695F636C6173735F7479BC
S113322070655F696E666F4500003432043268323F
S113323000002A32B375CB75FF9C029D377D057C57
S1133240D977F57544774E31305F5F637878616282
S113325069763131375F5F636C6173735F74797062
S1133260655F696E666F4500343246323E33000056
S113327068328A7CA27CFF9C029D377D057CCC7CD5
S1133280C07D747C7374643A3A657863657074695C
S11332906F6E007374643A3A6261645F6578636563
S11332A07074696F6E0053743965786365707469FE
S11332B06F6E00007232A632537431336261645F00
S11332C0657863657074696F6E003432B832B432F5
S11332D04E31305F5F637878616269763131355F92
S11332E05F666F726365645F756E77696E644500CF
S11332F07232D0324E31305F5F63787861626976C2
S11333003131395F5F666F726569676E5F657863D7
S1133310657074696F6E45007232F4320000B43225
S1133320499A679A5D9A0000CA32539A7F9A629AC0
S1133330537439747970655F696E666F0000723218
S1133340303300003E33F59C089DFF9C029D209D78
S1133350059DD6B1430000000000000000000000FD
S11333600001020203030303040404040404040428
S113337005050505050505050505050505050505F9
S113338006060606060606060606060606060606D9
S113339006060606060606060606060606060606C9
S11333A007070707070707070707070707070707A9
S11333B00707070707070707070707070707070799
S11333C00707070707070707070707070707070789
S11333D00707070707070707070707070707070779
S11333E00808080808080808080808080808080859
S11333F00808080808080808080808080808080849
S11334000808080808080808080808080808080838
S11334100808080808080808080808080808080828
S11334200808080808080808080808080808080818
S11334300808080808080808080808080808080808
S113344008080808080808080808080808080808F8
S113345008080808080808080808080808080808E8
S1133460FF031101040001010501007F00007D003C
S11334700000000000000000FF030D010200010134
S11334800000000000000000FF030D010400010122
S1133490000100000000000000000000FFFFF63FF4
S11334A04041B052CA52E452075321533B5355533F
S10F34B0BE53DF53596A0000FFFF000008
S11334BC200A30FFFFBF92AFF6BF3AB45103980015
S11334CCF19802FCF24D0051059800F19802FCF2BF
S11334DC4D00880ED161F8EC233500305000B80053
S11334ECFC854A00E19800300611B80230FEFFB8A2
S11334FC04F19806F19808FCC24A00510298003075
S113350C0611B80230FEFFB804F19806F19808FCD5
S113351CC24A00EC363500E19800FCED4C00510237
S113352C9800FCED4C00FCA24A00100AD7AF8201B3
S113353CBDF230FEFF26F2BDF2AF8401BDF030FEC9
S113354CFF26F0BDF0AF3AB446F261C8EC61350029
S113355CADF2BF3AB4AF92AF46F261E3EC71350011
S113356CADF2BF92AF300600BFB201ADF0311EBD5B
S113357CF0ADF226F0BDF0D7FC393500ADF0BF3814
S113358CB4D761EFC1C3C561CF20063060B4B800B5
S113359C3000C2B802E6B804FC533E003060B4B844
S11335AC00300030B802FC684200C9EC98AFFAEC69
S11335BC8B9800E19802FCF24D00C9EA96AFFAEA46
S11335CC8B9800E19802FCF24D00C9E894AFFAE83C
S11335DC8B9800E19802FCF24D0051049800E1989C
S11335EC02FCF24D0051069800E19802FCF24D00E9
S11335FC51079800E19802FCF24D0051089800E143
S113360C9802FCF24D0051099800E19802FCF24D2D
S113361C00FAEC8B9800E19802FC2F4A00FAEA8B32
S113362C9800E19802FC2F4A00FAE88B9800E19884
S113363C02FC2F4A0051049800F19802FC2F4A0016
S113364C51069800F19802FC2F4A0051079800F19A
S113365C9802FC2F4A0051089800F19802FC2F4A5A
S113366C0051099800F19802FC2F4A00510A980065
S113367C304042B802300F00B804FC615000308472
S113368C35B800FCFA4500E19800FCBC3400100687
S113369C61EFC4C2C061CFD761EFC1C361CF201247
S11336ACAF36B4BDF0A1BF36B4ADF0B800300500F0
S11336BCB8028DF4980B8DF5980A8DF698098DF750
S11336CC9808FC46BC00ADF044000061E8ECA93855
S11336DC00AF3AB42292AFB810BDF0B80CF1980E0A
S11336EC980FADF0B800A80EB802FC5AB8008DF0D3
S11336FC9DE88DF19DE98DF29DEA8DF39DEBAF3440
S113370CB4BDF4880F9DF69DF7ADF4B800ADF6B8D2
S113371C02FC5AB8008DF09DF48DF19DF58DF29D4F
S113372CF68DF39DF78DF498008DF598018DF69830
S113373C028DF798033017B7B80430D138B806FCAB
S113374C2FB4008DF09DF48DF19DF58DF29DF68DC9
S113375CF39DF78DE898008DE998018DEA98028D18
S113376CEB98038DF498048DF598058DF698068DD9
S113377CF79807FCD9B2008DF09DF48DF19DF58D71
S113378CF29DF68DF39DF78DF498008DF598018DCF
S113379CF698028DF79803FC40AD00ADF0BF34B43D
S11337ACA81044050061E3ECD1370051049800E102
S11337BC9802FC2F4A00A810440A0061F3ECE1378C
S11337CC00ECFB370051049800880F9802FC2F4A38
S11337DC00ECFB370051069800E19802FC2F4A00DC
S11337ECA81044140061F3EC0A3800EC243800519E
S11337FC069800F19802FC2F4A00EC24380051077B
S113380C9800E19802FC2F4A00A81044320061F39E
S113381CEC333800EC52380051079800F19802FC54
S113382C2F4A00EC52380051089800E19802FC2F02
S113383C4A00A81044640061E3EC5D380051099817
S113384C00E1EC62380051089800F19802FC2F4A10
S113385C0051099800F19802FC2F4A003060B4B86A
S113386C00AF38B4B802300A00B804FC334400305A
S113387C60B4B800300630B802FCFD41003060B4CE
S113388CB800A810B802300A00B804FCE94400AF30
S113389C92AF023AB4311EBF3AB4BF92AF300A00B1
S11338ACB800F6B802FCD24800101261EFC2C06135
S11338BCCFD7A804BDF0FAF0AC0CBDF0FAF0AC40D4
S11338CCBDF2FAF0AC42BDF0ADF226F0BDF28DF2D1
S11338DC5C3F9DF0F4F1D7A804BDF0FAF0AC0CBD3C
S11338ECF0FAF0AC40BDF4FAF0AC42BDF2ADF446E3
S11338FCF261F8EC1B3900FAF0AC42BDF2ADF00603
S113390CF2BDF2FAF28B705100BDF0EC1F3900C914
S113391CF0FFFFD7A804BDF0FAF0AC0CBDF2FAF23C
S113392CAC40BDF4FAF2AC42BDF0ADF446F061F833
S113393CEC6E3900FAF2AC42BDF0ADF206F0BDF417
S113394CFAF48B705100BDF0EAF2AA42A1BDF68DD7
S113395CF65C3F9DF4F4F5DAF2ADF4784200EC72C7
S113396C3900C9F0FFFFD761EFC161CFA806BDF2E2
S113397CFAF2AC0EBDF0EAF0AA40A1BDF68DF65CED
S113398C3F9DF4F4F5FAF0AC42BDF6ADF446F661A5
S113399CF8EC913900717BFAFAF0AC40BDF6ADF05D
S11339AC06F6BDF6DAF68808480000FAF2AC0EBD4D
S11339BCF0DAF0ADF47840008C109DE8D4E861E8BE
S11339CCEC033A00AF0001BDF68DF65C409DF48D1E
S11339DCE89DF5ADF444000061E8EC863A00715BB7
S11339ECE1FAF0AC42BDF4ADF006F4BDF4FAF48B9C
S11339FC9F10FFEC6A3A004AE80161E8EC3D3A009A
S1133A0CAF0401BDF68DF65C409DF4F4F5ADF444C1
S1133A1C000061E8EC863A00710BE2FAF0AC42BDAE
S1133A2CF4ADF006F4BDF6FAF68B9F44FFEC6A3A5B
S1133A3C00AF4001BDF68DF65C409DF4F4F5ADF499
S1133A4C44000061E8EC863A00710BE1FAF0AC42F8
S1133A5CBDF4ADF006F4BDF4FAF48B9F48FFFAF212
S1133A6CAC0EBDF2EAF2AA42A1BDF48DF45C3F9D0A
S1133A7CF0F4F1DAF2ADF0784200717AFAC9F0019F
S1133A8C0061EFC061CFD761EFC1C3C561CFA80A94
S1133A9CBDF6FAF6AC0EBDE8FAE8AC40BDEAAC42B1
S1133AACBDECADEA46EC61E8ECA43A00FAF68C10F5
S1133ABC9DF6D4F661E8ECE23A00AF0001BDF08D5E
S1133ACCF05C609DF4F4F5ADF444000061E8ECC6E0
S1133ADC3A00EC1F3B004AF60161E8EC073B00AFEF
S1133AEC0401BDF08DF05C609DF2F4F3ADF2440082
S1133AFC0061E8ECEB3A00EC1F3B00AF4001BDF277
S1133B0C8DF25C609DF0F4F1ADF044000061E8ECE2
S1133B1C073B0061EFC4C2C061CFD7A806BDF0EA71
S1133B2CF0AA40A1BDF48DF45C3F9DF2F4F3FAF0DD
S1133B3CAC42BDF4ADF246F461F8EC643B00FAF02F
S1133B4CAC40BDF4ADF006F4BDF6DAF688044800DA
S1133B5C00DAF0ADF2784000D720048F12FF980001
S1133B6C30C6B5B802FC273B001004D720048F469E
S1133B7CFF9800303EB5B802FC273B001004D72058
S1133B8C048F4AFF980030B6B4B802FC273B0010EF
S1133B9C04D7AFC2B5BDF2AFC4B5BDF0ADF246F0BB
S1133BAC61F8ECD03B00AFC4B50482B5168B9F1002
S1133BBCFFAFC4B5A1BDF28DF25C3F9DF0F4F1AD45
S1133BCCF0BFC4B5D7AF3AB5BDF2AF3CB5BDF0AD9F
S1133BDCF246F061F8EC033C00AF3CB504FAB416C1
S1133BEC8B9F44FFAF3CB5A1BDF28DF25C3F9DF0C1
S1133BFCF4F1ADF0BF3CB5D7AFB2B4BDF2AFB4B4D1
S1133C0CBDF0ADF246F061F8EC363C00AFB4B40450
S1133C1C72B4168B9F48FFAFB4B4A1BDF28DF25CA5
S1133C2C3F9DF0F4F1ADF0BFB4B4D78F12FF300761
S1133C3C00BF0A01D78F46FF300700BF0E01D78F94
S1133C4C4AFF300700BF4A01D7A804BDF0FAF08C34
S1133C5C109DF0D4F061E8ECB73C007120F000AF9B
S1133C6C2401BDF28DF26C039DF08DF39DF1ADF04A
S1133C7CBF2401715AED715AE9716AED716AE971E7
S1133C8C7AED717AE9302200BF1001309780BF18A9
S1133C9C0171407000300700BF0A01302201BF12CD
S1133CAC01309744BF1A01EC5C3D004AF00161E815
S1133CBCEC103D007120F000AF2401BDF28DF26CCC
S1133CCC0C9DF08DF39DF1ADF0BF2401710AEE71E2
S1133CDC0AEA711AEE711AEA712AEE712AEA302292
S1133CEC80BF1401309780BF1C01714070003007F5
S1133CFC00BF0E01302281BF1601309744BF1E0154
S1133D0CEC5C3D007130F000AF6401BDF28DF26CDF
S1133D1C039DF08DF39DF1ADF0BF6401710AED715B
S1133D2C0AE9711AED711AE9712AED712AE9302246
S1133D3C00BF5001309780BF5801714070003007AC
S1133D4C00BF4A01302201BF5201309744BF5A01CF
S1133D5CD7A804BDF0FAF08C109DF0D4F061E8EC17
S1133D6CB93D00715BE1715BE5716BE1716BE57100
S1133D7C7BE1717BE5AF2A01BDF28DF26C019DF004
S1133D8C8DF39DF1ADF0BF2A01AF2201BDF28DF28E
S1133D9C6C039DF08DF39DF1ADF0BF2201711021E8
S1133DACFF712001FF712821FFEC523E004AF00103
S1133DBC61E8EC0C3E00710BE2710BE6711BE271D5
S1133DCC1BE6712BE2712BE6AF2A01BDF28DF26C6E
S1133DDC049DF08DF39DF1ADF0BF2A01AF2201BD1E
S1133DECF28DF26C0C9DF08DF39DF1ADF0BF2201C0
S1133DFC711020FF710000FF710820FFEC523E008F
S1133E0C710BE1710BE5711BE1711BE5712BE17118
S1133E1C2BE5AF6A01BDF28DF26C019DF08DF39D23
S1133E2CF1ADF0BF6A01AF6201BDF28DF26C039D7E
S1133E3CF08DF39DF1ADF0BF6201714021FF713043
S1133E4C01FF713821FFD761EFC1C3C561CF2014C5
S1133E5CA81EBDE8A820BDF4A822BDF6C9EA00003E
S1133E6C8DEA76E68696DD05311D96DFFBB80CB837
S1133E7C10317B98129813300048B80030E801B820
S1133E8C02A810B804A812B8068DF498088DF598F9
S1133E9C0B8DF6980A8DF79809FC4CBB00ADF0B865
S1133EAC00ADF2B80288089DF4880B9DF5880A9D34
S1133EBCF688099DF7ADF4B804ADF6B806FC48BB1A
S1133ECC00ADF004FFFFBDF0ADF261D8A104FFFF1B
S1133EDCBDF2ADF2311EB80E8DF161FB980D8DF073
S1133EEC61FB980CA80CBDF088089DF4880B9DF51B
S1133EFC880A9DF688099DF7ADF0447F0061E3ECD8
S1133F0C1C3F00A6EAADEA44100061E8EC6C3E00EC
S1133F1CFAE88C109DF4A80C319DBDECADE8B8000A
S1133F2CD4F461E8EC713F008DF49808FC553C0026
S1133F3CAF2601BDF28DF25CF09DF08DF39DF1ADD9
S1133F4CF0BF2601BDF28DEA5C0F9DF06BF29DF47F
S1133F5C8DF39DF5ADF4BF2601ADECBF10FFBF1280
S1133F6CFFECE43F004AF40161E8ECB13F00FC557E
S1133F7C3C00AF2601BDF28DF25C0F9DF08DF39DDC
S1133F8CF1ADF0BF2601BDF28DEA31496BF29DF41F
S1133F9C8DF39DF5ADF4BF2601ADECBF44FFBF46D8
S1133FACFFECE43F00FC553C00AF6601BDF28DF222
S1133FBC5CF09DF08DF39DF1ADF0BF6601BDF28D0B
S1133FCCEA5C0F6BF29DF48DF39DF5ADF4BF6601C5
S1133FDCADECBF48FFBF4AFFADE8B800FC5D3D0047
S1133FEC101461EFC4C2C061CFD73262B4F678004A
S1133FFC0030E803780200F67804003260B43090A4
S113400C3178000030C6B5780C003082B5780E00DB
S113401CF14810003250B4F678000030E80378020E
S113402C00F6780400324EB4309031780000303E03
S113403CB5780C0030FAB4780E00E1481000323E2A
S113404CB4F678000030E803780200F67804003205
S113405C3CB430903178000030B6B4780C00307237
S113406CB4780E005102481000D761EFC1C3C5618A
S113407CCF200AA814BDE8A816BDECF6B806B808FB
S113408CADECB800A80606E8BDF0FAF08C02980274
S113409C300A00B804FCB04400ADF0BDEAADECB895
S11340AC00512E9802FC0E4200ADF006EABDF0A8B9
S11340BC0806F0B808FBF8FF617906A8064403006B
S11340CC61E8EC8C4000ADECB800FAE88C05980281
S11340DC300A00B804FCB04400A80806F0BDF01087
S11340EC0A61EFC4C2C061CFD72006A80ABDF0BDD7
S11340FCF2DAF230C031780000ADF0040200B800FE
S113410CF6B802300400B804FCC8A7001006D7A8FF
S113411C04BDF0BDF2DAF230C031780000DAF08878
S113412C064802008808480300880A480400880CE2
S113413C480500D7320AB630C031780000F1480285
S113414C00F1480300F1480400F1480500D761EF81
S113415CC1C3C561CF2006A810BDEAA812BDECA846
S113416C1406ECB804C9E80000A80446EC61F8ECA9
S113417CA64100FAEAABBDF0ADEAB800FAEC8B98B4
S113418C02ADF0BDF2FAF2ABBDF2FAF261FAADE8AF
S113419C06F0BDE8A6ECEC754100ADE8BDF01006E8
S11341AC61EFC4C2C061CFD761EFC1C361CF200638
S11341BCA80EBDEAA810BDE844000061F8ECF24179
S11341CC00B800FC5EA800FAEAABBDF2ADEAB80098
S11341DCADE8B802ADF0B804FAF2AC02BDF2FAF2F2
S11341EC61FAECF44100BDF0100661EFC2C061CF7E
S11341FCD72004A808B800A80AB802FCB4410010DF
S113420C04D72004A808BDF0BDF4FAF4ABBDF2AD9C
S113421CF0B800880A9802ADF2BDF4FAF4ABBDF222
S113422CFAF261FA1004D761EFC1C361CF2004A87C
S113423C0CBDE8B800510D9802FC0E4200ADF0BD67
S113424CEAADE8B800510A9802FC0E4200ADF00643
S113425CEABDF0100461EFC2C061CFD761EFC1C3F6
S113426C61CF2004A80CBDE8B800A80EB802FCB4B9
S113427C4100ADF0BDEAADE8B800FC334200ADEA54
S113428C06F0BDF0100461EFC2C061CFD761EFC17D
S113429CC3C561CF2036A842B808A844B80A8846DA
S11342AC9DECF198354AEC0161F3ECBD4200CDEC88
S11342BC0AAEF8043400B8108DEC9DE8F4E98DE9ED
S11342CC9DEA9DEBA808B800A80AB802ADE8B804AA
S11342DCADEAB806FC48BB00ADF0B80CADF2B80EB4
S11342EC880C9DF18DEC708DF1D6609DF08DF0767F
S11342FC8808612E9DF0A810B8128DF04C0971FF3E
S113430C61F3EC1843000C30EC1A43000C379DF0AD
S113431CA810BDF2DAF28DF0480000ADF2B1B8107D
S113432CA80E440000A80C61F844000061F8EC4AA3
S113433C4300A80CB808A80EB80AECC44200A84064
S113434CB800A812B802FCB44100103661EFC4C224
S113435CC061CFD761EFC1C361CF200CA814BDE8F5
S113436CA816BDF4A818BDF6A81ABDF04400006147
S113437CE8EC9F4300FAE8ABBDF0ADE8B8008DF46F
S113438C9802ADF0BDF2FAF2ABBDF2FAF261FAECBE
S113439C2A4400440A0061E8EC164400ADE8B80075
S11343AC7174F761C8EC084400512D98028DF4988F
S11343BC0B8DF5980A8DF698098DF79808FC0E422A
S11343CC00ADF0BDEAADE8B800880B9DF4880A9DF9
S11343DCF588099DF688089DF730000026F4B8028C
S11343EC30000061D8B126F6B804510A9806FC993D
S11343FC4200ADF006EABDF0EC2A4400ADF4B8027C
S113440CADF6B804510AEC244400ADE8B800ADF4A0
S113441CB802ADF6B8048DF09806FC994200100C65
S113442C61EFC2C061CFD72008A80EBDF0A80CB8AC
S113443C00ADF0B802317B98049805A810B806FCBE
S113444C6043001008D761EFC161CF2008A80EBDEE
S113445CF2A810BDF4A812BDF6A814BDF0440000D7
S113446C61E8EC944400ADF2BDE8FAE8ABBDF0AD04
S113447CF2B8008DF49802ADF0BDF2FAF2ABBDE8DF
S113448CFAE861FAECA84400ADF2B800ADF4B80255
S113449CADF6B8048DF09806FC994200100861EF53
S11344ACC061CFD72008A80CB800880E9802F198E8
S11344BC03F19804F19805A810B806FC52440010B6
S11344CC08D72008A80CB800A80EB802F19804F17B
S11344DC9805A810B806FC5244001008D761EFC127
S11344ECC361CF2006A80EBDE8B800A810B802A876
S11344FC12B804FCCE4400ADF0BDEAADE8B800FC43
S113450C334200ADF006EABDF0100661EFC2C061A3
S113451CCFD761EFC1C3C561CF200CA816BDF4A8D9
S113452C18BDF6AFB001BDF28DF25CDE9DF0F4F176
S113453CADF044000061F8EC4D4500E4ECEC504562
S113454C00CDEC02ADF644FFFFADF461F844FFFF7F
S113455C61E8EC7045007120E7FF61FD7128E7FF0D
S113456CECEB4500ADF4BF22BAADF6BF24BA710032
S113457CD4FFAF1EBAB808AF20BAB80AADF4B8006D
S113458CADF6B802304100B804F6B806FC48BB00DE
S113459CFBF8FFADF0610908BDF0ADF261D8A16183
S11345AC090ABDF2ADF0BF1EBAADF2BF20BA4AEC97
S11345BC0261E8ECC9450061FDECCB450061EDAF4F
S11345CC22BABDE8AF24BABDEAADEA440000ADE8B6
S11345DC61F844000061E8ECBA45007108D4FF109E
S11345EC0C61EFC4C2C061CFD7C9F00000D7A804D6
S11345FCBF1CBAD78FFAFF9DF0717BFAAF26BABDF8
S113460CF4AF28BABDF68DF09FFAFFADF4BDF0AD52
S113461CF6BDF2D761EFC1C3C561CF2008C9EC2A3E
S113462CB6EAECA944000061F8ECBB4600FC004679
S113463C00ADF0BDE8ADF2BDEAFAECADE861290AD3
S113464CBDF4ADEA61D8B161290CBDF6DAECADE884
S113465C780A00ADEA780C00AC06B804AC08B806CD
S113466CA80426F4BDF0A80661D8B126F6BDF2DA8A
S113467CECADF0780600ADF2780800A80646F6A872
S113468C0461F846F461F3ECBB4600FAECEAECADD9
S113469CF0610902BA06ADF261D8A1610904BA0845
S11346ACADE8B800ADEAB802ABBDF2DAF261DAAD4E
S11346BCEC040E00BDEC449AB661E8EC2D460010F7
S11346CC0861EFC4C2C061CFD761EFC1C361CF2011
S11346DC08D5A8B661E8EC4048008FFAFF5C809DD1
S11346ECF4AF1EBAD4F461E8EC354700B800AF203F
S11346FCBAB8028FD0FF9DF7AF8A01BDF48FD0FFFB
S113470C9DF65AF70161E8EC6E47005AF60161F820
S113471CEC8F4700A800040100B800A80261D8A1DE
S113472C040000B802EC8B4700B800AF20BAB80202
S113473CAF8A01BDF4AF1EBAB804AF20BAB806A84C
S113474C04BDF6A806BDE8A80246E8A80061F84630
S113475CF661E8EC834700ADF444FEFF61E8EC8FAE
S113476C4700A800040100B800A80261D8A1040005
S113477C00B802EC8F4700A804B800A806B802C918
S113478CF4FEFFA802315D9DEB8801708802315D57
S113479C9DEAA800315DBDE8FBF8FFADE8610900B6
S11347AC00BDE8ADEA61D8A1610902BDEAADEA3108
S11347BC5D9DEBD8E98DEA315D9DEAADE8315DBDD7
S11347CCE8ADE861090000BDE8ADEA61D8A1610972
S11347DC02BDEAADEA315D9807D8E98DEA315D98FE
S11347EC06ADE8315DB804A80426E8B804A806614F
S11347FCD8B126EAB806A804311DBDE8A80661EEB6
S113480CBDEAADE861090000BDE8ADEA61D8A1617B
S113481C0902BDEA30FEFF26F4BDF0F4F28DF29DE0
S113482CF3ADF006E8BDF4ADF261D8A106EABDF62D
S113483CECC14800FC004600ADF2312D9DF7D8F1D7
S113484C8DF2312D9DF6ADF0312DBDF4ADF406F0A5
S113485CBDF4ADF661D8A106F2BDF6ADF6312D9DD1
S113486CF3D8F58DF6312D9DF2ADF4312DBDF0ADAF
S113487CF406F0BDF4ADF661D8A106F2BDF6ADF6C2
S113488C312D9DF3D8F58DF6312D9DF2ADF4312DEE
S113489CBDF0ADF406F0BDF4ADF661D8A106F2BDE1
S11348ACF6ADF6313D9DF7D8F58DF6313D9DF6AD5F
S11348BCF4313DBDF4ADF4BDF0ADF6BDF2100861BC
S11348CCEFC2C061CFD761EFC1C3C561CF2004A8CB
S11348DC0EBDEAA810BDECD5A9B661E8EC314900CF
S11348ECFCD54600ADF0BDE8ADEC440000ADEA618A
S11348FCF844000061F8EC3D4900FCD54600ADF0ED
S113490C26E844E70361E3ECF44800ADEA04FFFF56
S113491CBDEAADEC61D8A104FFFFBDECADE804E841
S113492C03ECF24800ADEAB800ADECB802FC1E454D
S113493C00100461EFC4C2C061CFD7AF9AB6440073
S113494C0061F8EC594900BDF2DAF261DAD7AF9C98
S113495CB644000061F8EC6C4900BDF2DAF261DA9D
S113496CD7E5A7B6D7AF1EBABDF0AF20BABDF2AD2E
S113497CF0040100BDF0ADF261D8A1040000BDF259
S113498CADF0BF1EBAADF2BF20BAD78F28B69DF4D6
S113499CC9F010B6ADF04428B661C8EC154A00ADA8
S11349ACF0BDF6EAF6895C019DF2D4F261F8EC0AEA
S11349BC4A00D4F461E8ECCF4900DAF0FAF08C0543
S11349CC480100FAF08DF44E0161E8ECF64900FA66
S11349DCF0AC02BDF28C049DF57AF5FFADF2BDF698
S11349ECFAF68B5BF59BEC0A4A00D4F461E8EC0A0A
S11349FC4A00FAF0AC02BDF6EAF6896E0499ADF001
S1134A0C040600BDF0ECA049008F28B6819DF04A45
S1134A1CF0FF61F8EC2B4A009F28B6EC2E4A00F507
S1134A2C28B6D788044C19DE4F500ED612790C30A8
S1134A3C164908305D79143061E8790E3016880611
S1134A4C0CFF49093031231931130B3103047181E3
S1134A5CEF267191EF2231030471A1EF1B71B1EFB9
S1134A6C1731130B31030471C1EF0D71D1EF0931FF
S1134A7C030471E1EF0271F1D78FF0005C019DF03A
S1134A8CD4F061E8ECA14A007100F00000000000D1
S1134A9CA804BFB601D78FF0005C019DF0D4F0617F
S1134AACF8ECC14A00AFB00144000061E8ECC14A23
S1134ABC007108F000D761EFC1C361CF88089DEB8A
S1134ACCA80ABDF4A80CBDF288109DEAAFB401BDD0
S1134ADCE88DEB76E68696DD05311D96DFFBBDF0A1
S1134AEC8DF06BE89DF68DF16BE99DF7ADF6BFB4D7
S1134AFC014AEB0461F8ECBC4B004AEB0461F3ECA7
S1134B0C2E4B004AEB0261F8EC724B004AEB02614B
S1134B1CF3EC974B004AEB0161F8EC4D4B00EC4C79
S1134B2C4C004AEB0661F8EC064C004AEB0661D8E3
S1134B3CECE14B004AEB0761F8EC2B4C00EC4C4CD1
S1134B4C00715AE6715BE2715AEE715AEAADF4BF28
S1134B5C9201ADF2BF1AFFD4EA61F8EC4C4C00712F
S1134B6C5BE6EC4C4C00716AE6716BE2716AEE71B7
S1134B7C6AEAADF4BF9401ADF2BF64FFD4EA61F804
S1134B8CEC4C4C00716BE6EC4C4C00717AE6717B8E
S1134B9CE2717AEE717AEAADF4BF9601ADF2BF66BA
S1134BACFFD4EA61F8EC4C4C00717BE6EC4C4C0005
S1134BBC717AE7717BE3717AEF717AEBADF4BF989C
S1134BCC01ADF2BF68FFD4EA61F8EC4C4C00717B88
S1134BDCE7EC4C4C00710AD4710BD0710ADD710AEC
S1134BECD8ADF4BF9A01ADF2BF6AFFD4EA61F8EC18
S1134BFC4C4C00710BD4EC4C4C00711AD4711BD07E
S1134C0C711ADD711AD8ADF4BF9C01ADF2BF6CFF03
S1134C1CD4EA61F8EC4C4C00711BD4EC4C4C007194
S1134C2C2AD4712BD0712ADD712AD8ADF4BF9E0120
S1134C3CADF2BF6EFFD4EA61F8EC4C4C00712BD48E
S1134C4C880ED161F8EC6C4C00AFBE01BDF48DF054
S1134C5C6BF49DF28DF16BF59DF3ADF2EC8D4C0084
S1134C6CAFBE01BDF68DF09DF27AF2FF8DF19DF38E
S1134C7C7AF3FF8DF25BF69DF48DF35BF79DF5AD46
S1134C8CF4BFBE01AFBA01D4EA61F8ECBD4C00BD6F
S1134C9CF68DF09DF27AF2FF8DF19DF37AF3FF8D90
S1134CACF25BF69DF48DF35BF79DF5ADF4ECCD4C16
S1134CBC00BDF48DF06BF49DF28DF16BF59DF3ADAD
S1134CCCF2BFBA01AFB201BDF48DF06BF49DF28D5D
S1134CDCF16BF59DF3ADF2BFB20161EFC2C061CFD0
S1134CECD788049DF6AFB401BDF48DF676E68696AE
S1134CFCDD05311D96DFFBBDF28DF26BF49DF08D5D
S1134D0CF36BF59DF1ADF0BFB401AFBA01BDF48DF9
S1134D1CF29DF07AF0FF8DF39DF17AF1FF8DF05B4B
S1134D2CF49DF28DF15BF59DF3ADF2BFBA01AFB812
S1134D3C01BDF48DF05BF49DF28DF15BF59DF3AD4B
S1134D4CF2BFB8014AF60461F8ECB44D004AF6041B
S1134D5C61F3EC844D004AF60261F8ECA64D004A6E
S1134D6CF60261F3ECAD4D004AF60161E8ECC54D79
S1134D7C00715AE6ECC54D004AF60661F8ECC24DDA
S1134D8C004AF60661D8ECBB4D004AF60761E8EC24
S1134D9CC54D00712AD4ECC54D00716AE6ECC54DC5
S1134DAC00717AE6ECC54D00717AE7ECC54D0071E3
S1134DBC0AD4ECC54D00711AD4AFB001BDF28DF21A
S1134DCC5C9E9DF0F4F1ADF044000061E8ECF14D13
S1134DDC00AFB401BDF28DF26C019DF08DF39DF129
S1134DECADF0BFB401D761EFC1C361CF2002880A13
S1134DFC9DF2880C9DEA4AF21861F3EC5850008D30
S1134E0CF20CF29DF04AF00761F3EC5E4E004AF2AC
S1134E1C1461E8EC2B4E0071786E00EC5E4E004A87
S1134E2CF21561E8EC3C4E0071086C00EC5E4E002F
S1134E3C8F76009DF18DF20CF59DF0D4F161F8ECB8
S1134E4C594E008DF14BF061E3EC5E4E008DF09FFA
S1134E5C76008DF2500ED6040830BDE88DF27051F8
S1134E6C00BDF404AAB6BDF0BDF6EAF689D161F82A
S1134E7CEC7D4F008DF2500ED6040830BDF2FAF2E0
S1134E8C8C029DF2ADF0BDF6DAF6F14800004AF260
S1134E9CE061E8ECF54E00C9F00000ADF00106F05D
S1134EAC01BDF20410B614895C019DF6D4F661F8C8
S1134EBCECE24E00ADF20410B61489311A9DF6CD15
S1134ECCF700ADF646F461E8EC7D4F00ADF204104A
S1134EDCB614895CFE99A6F0ADF044040061E8ECCC
S1134EECA74E005106EC774F004AF20461F8EC59D6
S1134EFC4F004AF20461F3EC294F004AF20261F8C4
S1134F0CEC4B4F004AF20261F3EC524F004AF201AF
S1134F1C61E8EC7D4F00AF9201EC6A4F004AF20657
S1134F2C61F8EC674F004AF20661D8EC604F004A16
S1134F3CF20761E8EC7D4F00AF9E01EC6A4F00AFC5
S1134F4C9401EC6A4F00AF9601EC6A4F00AF9801E4
S1134F5CEC6A4F00AF9A01EC6A4F00AF9C01BDF0B4
S1134F6C44098461E8EC7D4F008DF29800FCED4C13
S1134F7C004AEA0561F3EC5850008DEA76E1869616
S1134F8CDD05311996DFFB9DF05C229DF1D4F161B6
S1134F9CE8EC1150005AF01D61F8EC585000FAE896
S1134FAC8B9DF2AC04BDF0FAF08DF261DD717BFAED
S1134FBC6D9B61CDFAE8AC06BDF04AEA0261F8ECEF
S1134FCCD84F004AEA0461E8ECE94F00FAF08DF29C
S1134FDC61DD717BFA6D9B61CDECF84F00FAF08DBD
S1134FECF27CFF61DD717BFA5D9B61CD8DEA0CFD7A
S1134FFC9DEAFAE8AC08BDF04AEA0161F3EC4950C9
S113500C00EC385000FAE88B9DF2AC04BDF0FAF0D9
S113501C8DF27CFF61DD717BFA5D9B61CDFAE8ACAE
S113502C0ABDF04AEA0561E8EC495000FAF08DF249
S113503C61DD717BFA6D9B61CDEC585000FAF08DFB
S113504CF27CFF61DD717BFA5D9B61CD100261EF37
S113505CC2C061CFD761EFC1C3C561CF200E881820
S113506C9DEDA81ABDF0A81CBDF24AED1861F3EC35
S113507C735100ADF2440000ADF061F844000061DE
S113508CF8ECB45000ADF0040BFFBDF4ADF261D8F4
S113509CA104FFFFBDF6ADF644F400ADF461F84491
S11350AC0B2361F3EC7351008DED500ED6040830D4
S11350BCBDF4FAF48C029DEC4AECE061F8EC73510B
S11350CC008DED9800E198028DF0980D8DF1980CFF
S11350DC8DF2980B8DF3980AFCF24D00880D9DF01F
S11350EC880C9DF1880B9DF2880A9DF3ADF2440067
S11350FC00ADF061F844000061F8EC6751003050E9
S113510C00B800FC854A008DEC9800F6B802A800A3
S113511CBDE8A802BDEA300048B80030E801B80286
S113512C880D9DF0880C9DF1880B9DF2880A9DF3E7
S113513CADF0311DB804ADF261EEB806FC48BB000D
S113514CADE8B800ADEAB802ADF0B1B804F1980618
S113515CF19808FCC24A00EC7351008DEC9800FCE9
S113516CED4C00FCA24A00100E61EFC4C2C061CF2A
S113517CD720048F9AAF4CFF61F8ECA55100E1984D
S113518C00FCED4C00FCA24A0088089800F198023F
S113519CFCF24D0051FF9F9AAF1004D72004AFA22C
S11351ACB6BDF0AFA4B6BDF2ADF244FFFFADF061F5
S11351BCF844FFFF61F8ECE15100AFA0B646F2AF42
S11351CC9EB661F846F061D8ECE151008F9AAF9825
S11351DC00FC7D51008F9AAF9DF14AF1FF61F8EC10
S11351EC1D5200AF9EB6040100BF9EB6AFA0B661BF
S11351FCD8A1040000BFA0B68FA6B69DF07AF0012A
S113520C8DF09FA6B68DF198008DF09802FC2F4A74
S113521C001004D78FA8FF9FC3B6717BFACF770019
S113522C09CFF50080FC686A00FCBF6A00717AFA49
S113523CD7FCF54500ADF044000061E8EC5C52008D
S113524CFC8E3500FCA43600FC204600EC505200C9
S113525CC9F00000D7EC6152008F9EFF5C109DF0EA
S113526CD4F061F8EC8A520071489EFFAFC6B64484
S113527C000061F8EC8A5200BDF2DAF261DA8F9E1A
S113528CFF5C089DF0D4F061F8ECAF520071389ECD
S113529CFFAFC4B644000061F8ECAF5200BDF2DAC3
S11352ACF261DAD7200A30C8B6B800F19802F19846
S11352BC04F19806F19808FC1B4100100AD7200A47
S11352CC30CEB6B800F19802F19804F19806F19832
S11352DC08FC1B4100100AD7200A30DCB6B800F1D8
S11352EC9802F19804F19806F19808FC1B410030DF
S11352FCD4B6B800FCF54000100AD7200A30E2B648
S113530CB800F19802F19804F19806F19808FC1B86
S113531C4100100AD7200A30E8B6B800F19802F11F
S113532C9804F19806F19808FC1B4100100AD72048
S113533C0A30EEB6B800F19802F19804F19806F12F
S113534C9808FC1B4100100AD7200A30F4B6B800A8
S113535CF19802F19804F19806F19808FC1B4100AD
S113536C100AD7A804BDF0DAF0F1480600DAF0F11F
S113537C480700F1480800C9F20000ADF006F2BD80
S113538CF4DAF4F1480900A6F2ADF244200061E825
S113539CEC875300DAF0F1482900F6782A00FAF089
S11353ACAC3644000061F8ECBD5300BDF2DAF26196
S11353BCDAD72002C9F0FAB6ADF0BDF2DAF23060F9
S11353CCB4780000F1480200ADF0B800FC6F530053
S11353DC1002D7323BB7F1480000F1480100F14804
S11353EC0500F1480700300200780900F6780B003C
S11353FCF1482300F6782D0030E031782B00F14889
S113540C3000D788049F4AFF8FE1FF5C029DF0D4E3
S113541CF061F8EC145400711BE1D7200251FF9891
S113542C00FC0F54008F4AFF9DF01002D72004A8F3
S113543C08BDF0FAF08C049800E19802FC2F4A00A5
S113544C1004D72004A808BDF0FAF08C049800F1DD
S113545C9802FC2F4A001004D761EFC161CF2002DF
S113546CA808BDE8EAE88A06D161F8ECCC5400CF70
S113547C4AFFFFFAE8AC08BDF0DAE8A1780800AD01
S113548CF044000261F3ECAC54008FE1FF5C029D2C
S113549CF0D4F061F8EC965400711BE1EC7B5400F1
S11354AC8FE1FF5C029DF0D4F061F8ECAC54007118
S11354BC1BE1ADE8B800FC395400DAE8F148060009
S11354CC100261EFC061CFD761EFC161CFFC004620
S11354DC00ADF0BDE8FC2754004AF0FF61F8EC087D
S11354EC5500FC004600ADF026E8BDF0A80846F0D7
S11354FC61F3ECE15400F4F0EC0A5500E4F061EFD4
S113550CC061CFD761EFC1C3C561CF200AA814BD58
S113551CE8A818BDEAA81ABDECADE8B800FC6554BF
S113552C00ADE8B800FC4F5400ADE8B800302C01D5
S113553CB802FCD4540088166C409800FC0F54003C
S113554C301800B804A804B806F198089809ADEA14
S113555CBDF0ADECBDF2A806BDF4A808BDF6E8F4A8
S113556CD3DD15ADF2311EBDF28DF161FB9DF18DD4
S113557CF061FB9DF093DFEB8DF09800FC0F540071
S113558CA80404F8FFB80444F8FF61E8EC51550092
S113559C8816D161F8ECB455004C0861F8ECBB5595
S11355AC00CDF0FFECBE5500CDF095ECBE5500CD12
S11355BCF0878DF09800FC0F5400F4EAFC2754009B
S11355CCDAE88DF0480B00D171FF61C8ECEB5500A3
S11355DC4AEAFF61F8ECEB5500A4EAECC85500105C
S11355EC0A61EFC4C2C061CFD761EFC1C361CF20E0
S11355FC02A80ABDE8FC004600ADF0BDEAFC275445
S113560C00DAE88DF0480B004AF0FF61E8EC3656FE
S113561C00FC004600ADF026EA442C0161E3EC09E1
S113562C5600DAE8510FEC4356004AF0FE61F8ECF0
S113563C545600DAE8510D480500ADE8B800FC39C1
S113564C5400F4F0EC565600E4F0100261EFC2C0C2
S113565C61CFD761EFC1C3C561CF2008A812BDE8E3
S113566CA814BDF4A816BDF6A81ABDEA440000613E
S113567CF8ECEF5700A81806EA44000261F3ECF5C5
S113568C5700EAE88A06D161F8ECBF5600FAE8AB99
S113569CBDF0AC02BDF2ADF646F2ADF461F846F0E5
S11356AC61E8ECBF5600FAE8A81861490861C8EC37
S11356BC2C5700DAE8ADF4780000ADF6780200EA75
S11356CCE88A0C4C0361F8ECEB5600D8F58DF631F6
S11356DC1DBDF6ADF4311D9DF6ADF4319DBDF4AD9B
S11356ECE8B80051119802ADF4B804ADF6B806FC54
S11356FC105500D4F061F8EC125700DAE851034865
S113570C0500ECF55700ADE8B800FCF55500D4F0F5
S113571C61F8ECF55700DAE8F6780800E148060081
S113572CCF4AFFFFA81816EAE8AA084761C8EC5F3D
S113573C57008FE1FF5C029DF0D4F061F8EC3E570A
S113574C00711BE1CF4AFFFFEAE8AA08A1BA08ECF2
S113575C305700ADEAB1BDF2C9F00000ADF046F22D
S113576C61C8ECA057008FE1FF5C029DF4D4F46196
S113577CF8EC725700711BE18F4AFF9DF6A81C06CA
S113578CF0BDECDAEC8DF6480000CF4AFFFFA6F032
S113579CEC6857008FE1FF5C029DF0D4F061F8ECEB
S11357ACA05700711BE18F4AFF9DF0A81C06F2BDA7
S11357BCF4DAF48DF0480000FAE8AC0806EABDEA25
S11357CCDAE8780800EAE88A0AD161F8ECE75700CD
S11357DCADEA44FF0161E3ECEF5700ADE8B800FC1F
S11357EC655400E4F0ECFF5700ADE8B800FC395404
S11357FC00F4F0100861EFC4C2C061CFD7200CA82C
S113580C10B800A812B802A814B804F6B8063000F0
S113581C02B808A816B80AFC5F5600100CD761EF42
S113582CC161CF2002A808BDE8880A9F4AFFA80CD2
S113583CBDF0040002BDF28FE1FF5C029DF4D4F4D0
S113584C61F8EC435800711BE1FAF08B9F4AFF8F0F
S113585CE1FF5C029DF4D4F461F8EC5B5800711B1D
S113586CE1FAF08C019F4AFFA6F0A6F0ADF046F2E7
S113587C61E8EC4358008FE1FF5C029DF0D4F061C9
S113588CF8EC825800711BE151FF9800FC0F540096
S113589C51FF9800FC0F5400FC275400DAE88DF0FB
S11358AC480B005AF01F4AF00561F8ECD05800DAA6
S11358BCE85111480500ADE8B800FC395400F4F087
S11358CCECD25800E4F0100261EFC061CFD761EF65
S11358DCC161CF2008A80EBDE8A810BDF0A812BD68
S11358ECF2ADF2440000ADF061F844000061E8EC64
S11358FC075900DAE85112ECAA5900EAE88A0C4C70
S113590C0361F8EC275900D8F18DF2311DBDF2ADCD
S113591CF0311D9DF2ADF0319DBDF0ADE8B80051F4
S113592C189802ADF0B804ADF2B806FC105500D4CA
S113593CF061F8EC4B5900DAE85104ECAA5900ADCB
S113594CE8B80051FE9802A814B804FC2A5800D4F4
S113595CF061F8ECAD5900ADE8B800305802B8026B
S113596CFCD45400D4F061E8EC805900DAE8511509
S113597CECAA5900ADE8B800510D9802F6B804F63B
S113598CB806FC105500D4F061E8ECA65900FC27CD
S113599C5400D4F061F8ECBB5900DAE85114480512
S11359AC00ADE8B800FC395400F4F0ECC55900AD76
S11359BCE8B800FC395400E4F0100861EFC061CF82
S11359CCD761EFC161CF2008A80EBDE8FAE8AC1C82
S11359DCB800E6B802F6B804ADE8040600B806FC54
S11359ECDE6400D4F061F8EC235A00FAE8AC1A44F3
S11359FC0000AC1861F844000061E8EC215A00FA8C
S1135A0CE8AC06DAE8781800AC08781A00EAE88AF8
S1135A1C046C809A04E4F0100861EFC061CFD76184
S1135A2CEFC161CF2006A80CBDE8FAE8AC0EB800B3
S1135A3CFAE8AC10B802880E9804FC9E6100D4F00D
S1135A4C61F8EC645A00FAE88C12705100315D0470
S1135A5C90B7BDF0EC685A00C9F00000100661EF75
S1135A6CC061CFD761EFC1C3C561CF201EA828BDCB
S1135A7CECA82ABDE8A82CBDEAFAEC8C059DF4D45C
S1135A8CF461F8ECB35A00FAECAC14BDF0AC16BDEE
S1135A9CF2ADEA46F2ADE861F846F061E3ECBB5ACC
S1135AAC00F4F0EC245C008DF49DF0EC245C004AD2
S1135ABCF40261F8EC1E5C00ADEA440000ADE86150
S1135ACCF844000061E8ECF25A00DAECADE8780630
S1135ADC00ADEA780800ADE8780A00ADEA780C006D
S1135AECE4F0EC245C00FAECAC0AB808AC0CB80A90
S1135AFCAC1CBDF0FAF08C0E705100040900B81CFB
S1135B0CA80804FFFFBDF0A80A61D8A104FFFFBDDB
S1135B1CF2A81CB810F198129813A810BDF4A8128E
S1135B2CBDF6E8F4D3DD15ADF2311EBDF28DF16195
S1135B3CFB9DF18DF061FB9DF093DFEBADE804FF71
S1135B4CFFB80CADEA61D8A104FFFFB80EA81CB8CD
S1135B5C148813981688139817A814BDF4A816BDA6
S1135B6CF6E8F4D3DD15A80E311EB80E880D61FBD2
S1135B7C980D880C61FB980C93DFEBA80E46F2A8E9
S1135B8C0C61F846F061D8ECA95B00A80A4400004B
S1135B9CA80861F844000061E8ECBB5B00FAECACCB
S1135BAC18DAEC780600AC1A780800ECCA5B00A88A
S1135BBC0C26F0B80CA80E61D8B126F2B80EA80CBD
S1135BCCB818A80EB81AADEC040600B810A81A44FC
S1135BDC0000A81861F844000061F8EC1E5C00FA9F
S1135BECECAC1CB800AC06B802AC08B804A810B8ED
S1135BFC06FC106200A81804FFFFB818A81A61D894
S1135C0CA104FFFFB81AD4F061E8ECD95B00EC24D2
S1135C1C5C00DAECECE25A00101E61EFC4C2C06105
S1135C2CCFD761EFC1C3C561CF2006A810BDECEA84
S1135C3CEC8A05D161F8ECE65C00EAEC8A04D171DB
S1135C4CFF61C8ECDE5C00ADECB800E19802FC2B03
S1135C5C5A00ADF044000061F8ECE65C00EAEC8A12
S1135C6C054C0161F3EC835C00FAECAC14DAF078CB
S1135C7C1C00AC16781E00FAECAC18BDE8AC1ABDCE
S1135C8CEADAF0ADE8781A00ADEA781400AF86B71A
S1135C9CBDF244000061F8ECD65C00ADF0041800D1
S1135CACB800ADF0041600B8028DF098058DF1988B
S1135CBC04ADF2BDF4DAF461DA88059DF088049D34
S1135CCCF1FAF0AC18DAF0781200EAEC8A045C7F92
S1135CDC9A04FC1D6100ECE85C00F4F0100661EF22
S1135CECC4C2C061CFD761EFC1C3C561CF2042A884
S1135CFC4CBDECEAEC8A054C0161E8EC585D00FA09
S1135D0CEC8C049DF05C029DF1D4F161F8EC585DCF
S1135D1C005AF00461F8EC6D5D00FAECAC14BDF4BF
S1135D2CAC16BDF6AC0C46F6AC0A61F846F461F858
S1135D3CEC6D5D00ADECB800ADF4B802ADF6B80492
S1135D4CFC705A00D4F061E8EC6D5D00DAECE67896
S1135D5C0200F6B80EBDF0104261EFC4C2C061CFB0
S1135D6CD7A850B818ECBC5E00AC1CBDF0EAF08AA5
S1135D7C04919DF2D8E98DEA317D9DF4ADEA317D33
S1135D8C9DF5ADEA319EBDF68DF25BF498168DE867
S1135D9C98148DE95C0198158816D161F8ECD75EDE
S1135DAC00A8141630000227B80CA818BDF2B81AB3
S1135DBCA80C46F261C8ECC85D00B81AFAECAC0643
S1135DCC04FEFFBDF4AC0861D8A104FFFFBDF6AC22
S1135DDC1CBDF0FAF08C0E705100B810F1981298AA
S1135DEC13A810BDF0A812BDF28DF0D1DD1175AD64
S1135DFCF6DAF4311C61EE95DFF9BDF613BDF4FA55
S1135E0CECAC1CBDF2FAF2ADF4610910BDF4ADF6C4
S1135E1C61D8A1610912BDF68816982C8813982DA7
S1135E2C982E982FFBF8FFADF461092CBDF4ADF658
S1135E3C61D8A161092EBDF6A81A44000261E8ECF0
S1135E4CB95F00AF9EAF46F6AF9CAF61F846F46104
S1135E5CE8EC6D5E0030FFFFBF9CAF30FFFFBF9ED0
S1135E6CAFAF8EB7B800ADF4B802ADF6B804A84E17
S1135E7CB806FCDA5800D4F061F8EC585D00A84E72
S1135E8C040002B84EA81A16A81827B818A81AB8ED
S1135E9C30F198329833FBF8FFEAECDAECAA0A6199
S1135EAC0930780A00AA0C61D8A1610932780C0077
S1135EBCFAECAC0ABDE8AC0CBDEAA818FAEC440048
S1135ECC0061E8EC755D00EC8A6000A814440000E5
S1135EDC61E8ECAD5D00FAECAC06B81CAC08B81E7D
S1135EECA81E440000A81C61F844000061E8EC27DB
S1135EFC5F00FAECAC18B820AC1AB822A822440003
S1135F0C00A82061F844000061F8EC955F00A8201B
S1135F1CDAEC780600A822ECB25F00ADF0B800A869
S1135F2C1CB802A81EB804AEF804420004FCFFB866
S1135F3C06FC106200D4F061E8EC4F5F00A814EC8E
S1135F4C5F5D00A83EB824A840B826FAECAC1CBD92
S1135F5CF0EAF08A1A4C1061E8EC735F0030F8FF39
S1135F6CB828F6EC7B5F0030F8FFB82830FF0FB888
S1135F7C2AA828BDF2A82ABDF4A82646F4A82461B0
S1135F8CF846F261D8ECA95F00ADECB800FCCD5931
S1135F9C00D4F061E8ECAD5D00EC585D00A824DAA7
S1135FACEC780600A826780800ECAD5D00A8144433
S1135FBC000061E8EC286000FAECAC14B836AC16BE
S1135FCCB838A836BDF0A838BDF2AC0C46F2AC0A11
S1135FDC61F846F061D8EC2860008DF4980B8DF5CF
S1135FEC980A8DF698098DF79808FC1D6100880BAA
S1135FFC9DF4880A9DF588099DF688089DF7D4F0D0
S113600C61F8EC585D00ADF4BF9CAFADF6BF9EAF2C
S113601C8F8CB76C019F8CB7EC3F6000ADF4B8006B
S113602CADF6B802E19804FC9E6100D4F061F8EC82
S113603C585D00A8140490B7B816A84EB834A81A22
S113604C16A81607BDF0A816B80C46F061F8EC7A41
S113605C6000A80CBDF2A834BDF4DAF2FAF48B4853
S113606C0000ADF4A1B834ADF2A1EC546000A81654
S113607C16A80C27BDF0A84E06F0EC8F5E00AC14ED
S113608CB83AAC16B83CA83ABDF2A83CBDF4ADEA9B
S113609C46F4ADE861F846F261E3ECBA6000DAEC80
S11360ACADE8781400ADEA781600ECD16000AF8648
S11360BCB744000061F8ECD96000A85044000061BA
S11360CCF8ECD96000EAEC8A046C809A04EAEC8A55
S11360DC045C089DF0D4F061E8ECEF6000A850EC8F
S11360EC5F5D00ADECB800FC2E5C00D4F061F8EC04
S11360FC585D00ECE960002006A80AB800AEF8046C
S113610C0A00040200B802E6B804FCF25C001006B3
S113611CD761EFC1C361CF2008D58CB761F8EC937C
S113612C6100AF8EB7B800AF9CAFB802AF9EAFB8EA
S113613C043090B7B806FCDA5800D4F061F8EC954A
S113614C6100AF88B7BDE8AF8AB7BDEAADEA4400D9
S113615C00ADE861F844000061F8EC906100AF8E8A
S113616CB7B800ADE8B802ADEAB8043090B7B806D9
S113617CFCDA5800D4F061F8EC956100F6BF88B7EE
S113618CF6BF8AB7F58CB7E4F0100861EFC2C061B2
S113619CCFD761EFC1C361CF2008A810BDE8A81206
S11361ACBDEAAF9EAF46EAAF9CAF61F846E861F832
S11361BCECFA6100FC1D6100D4F061E8ECD26100E2
S11361CCF4F0EC076200AF8EB7B800ADE8B802ADDE
S11361DCEAB8043090B7B806FC095800D4F061F85A
S11361ECECCC6100ADE8BF9CAFADEABF9EAF8814A8
S11361FC768F8CB7616E9F8CB7E4F0100861EFC298
S113620CC061CFD761EFC1C3C561CF201AA826B82E
S113621C0EA828B810A82ABDECA824BDF2FAF2AC3A
S113622C0A040100B806AC0C61D8A1040000B8083B
S113623CA806BDF0A808BDF2A81046F2A80E61F895
S113624C46F061E3EC5A6200F4F0EC6B6300A824B2
S113625CBDF2FAF2AC16B812A824BDF2FAF2AC18DC
S113626CB814A824BDF2EAF28A1A4C1061E8EC8F37
S113627C6200880F708810BDF0A810318EBDF2EC4E
S113628CA46200A80E311D9DF0880F708810311D7A
S113629C9DF1A810317EBDF2FBF8FFADF06109123F
S11362ACB806ADF261D8A1610914B808AF9CAFB8B7
S11362BC16AF9EAFB818A816BDF0A818BDF2A80862
S11362CC46F2A80661F846F061E8EC0A6300A824DB
S11362DCBDF2EAF28A1A4C1061E8EC356300880EC0
S11362EC9DE8F4E98DE99DEBADE8010490B716AB9C
S11362FCDAEC7800008DEB480200EC666300A8062B
S113630CB800A808B802F198048DF4980D8DF5988E
S113631C0C8DF6980B8DF7980AFC9E6100D4F061F5
S113632CE8ECDA6200EC546200880E5C7F9DF4F4B5
S113633CF5ADF4312D0490B7BDF4BDF0DAECEAF010
S113634C895CFF480000EAF48A015CFF4801008A7A
S113635C025CFF4802008A035C0F480300E4F0105F
S113636C1A61EFC4C2C061CFD761EFC1C3C561CF9D
S113637C201EA828BDECA82AB80AA82CB80CA82E54
S113638CB812A830B814A80C440000A80A61F84448
S113639C010061E3ECD26400FAECAC0A040100BD28
S11363ACF0AC0C61D8A1040000BDF2A80C46F2A814
S11363BC0A61F846F061F3ECD26400FAECAC16B85E
S11363CC16AC18B818EAEC8A1A4C1061E8ECEE63B7
S11363DC00880B70880CBDF0A80C318EBDF2EC0358
S11363EC6400A80A311D9DF0880B70880C311D9D2A
S11363FCF1A80C317EBDF2FBF8FFADF0610916B8C3
S113640C0EADF261D8A1610918B810AF9CAFB81ADF
S113641CAF9EAFB81CA81ABDF0A81CBDF2A81046BC
S113642CF2A80E61F846F061E8EC5E6400EAEC8ACE
S113643C1A4C1061E8EC896400880A9DE8F4E9AD13
S113644CE8010490B7BDE8A812DAE8780000ECA3E0
S113645C6400A80EB800A810B802F198048DF49842
S113646C098DF598088DF698078DF79806FC9E61B2
S113647C00D4F061E8EC396400ECD46400880A5C64
S113648C7F9DF4F4F5ADF4312DBDF4A812DAF47853
S113649C90B7A8147892B78F8CB76C019F8CB7EA1D
S11364ACEC8A144C0161E3ECCC6400FAECA80E61A8
S11364BC0906BF88B7A81061D8A1610908BF8AB7BB
S11364CCE4F0ECD46400F4F0101E61EFC4C2C061BB
S11364DCCFD761EFC1C3C561CF202EA838BDECA8BE
S11364EC3AB81AA83CB81CA83EBDE8FAE8ABBDF013
S11364FCAC02BDF2ADF2440000ADF061F844000012
S113650C61F8EC276500ADF0040100B816ADF2613A
S113651CD8A1040000B818EC446500FAECABB8162A
S113652CAC02B818E4EAA81C440000A81A61F844A8
S113653C010061F8EC466500F4EAFAECAC0A0401DB
S113654C00B826AC0C61D8A1040000B828A816B871
S113655C12A818B814C9F40000ADF4BDF6FAECACEA
S113656C0AB822AC0CB824A822BDF0A824BDF2AD04
S113657CF646F2ADF461F846F061C8ECA16600A8E9
S113658C26BDF0A828BDF2A81446F2A81261F8465C
S113659CF061E3ECB36500300200B812F6B814A84D
S11365AC12B816A814B818ADECB800A812B802A802
S11365BC14B804AEF8042E0004FCFFB8068DF4984D
S11365CC118DF598108DF6980F8DF7980EFC1062BE
S11365DC0088119DF488109DF5880F9DF6880E9DFA
S11365ECF7D4F061F8ECA16600A82C440000A82AAA
S11365FC61F844000061F8EC1C6600A81204010068
S113660CB816A81461D8A1040000B818EC59660097
S113661CA812040100BDF0A81461D8A1040000BDA7
S113662CF2FBF8FFADF0612916B80AADF261D8B1EE
S113663C612918B80CA81ABDF0A81CBDF2A80C4608
S113664CF2A80A61F846F061F8EC7F6600ADF40438
S113665C0100BDF4ADF661D8A1040000BDF6A8128A
S113666C040100B812A81461D8A1040000B814ECF9
S113667C696500ADECB800A812B802A814B80430CF
S113668CFFFFB80630FF0FB808FC756300D4F06147
S113669CE8ECE06600F4F0EC636700A81204FFFF7A
S11366ACB81AA81461D8A104FFFFB81CADECB8004B
S11366BCA81AB802A81CB804A812B806A814B808DA
S11366CCFC756300D4F061F8ECA16600A81AB8124A
S11366DCA81CB814A816BDF0A818BDF2A81446F24C
S11366ECA81261F846F061F3ECA76600FAE8ABB8BF
S11366FC1EAC02B820A820440000A81E61F8440077
S113670C0061E8EC3D6700A816DAE8780000A818E8
S113671C780200D4EA61F8EC616700EAECA816048C
S113672C0100B9A81861D8A1040000BA02EC616791
S113673C00ADECB800A81EB802A820B804A816B87E
S113674C06A818B808FC756300D4F061E8EC13676C
S113675C00ECA16600E4F0102E61EFC4C2C061CF5E
S113676CD720048F99B99DF28F98B9705100BDF060
S113677C8F99B9D4F261E8ECB66700318F46F071A9
S113678CFF7177F161C8EC2868008F99B9318F31AA
S113679C2D049AB91489316A9DF25AF2014AF20114
S11367AC61E8EC286800EC856800D171FF61E3ECCA
S11367BC2868008F99B9318F46F071FF7177F161B8
S11367CCC8ECED67008F99B9318F312D049AB91447
S11367DC89316A9DF25AF2014AF20161F8EC9B6824
S11367EC008F99B9318FBDF28F98B9705100BDF0FB
S11367FCADF246F071FF7177F161F3EC2868008F0C
S113680C99B9318FB1312D049AB91489316A9DF03B
S113681C5AF0014AF00161F8ECB76800A099B98FFD
S113682C99B99DF08F98B9705100BDF28DF0318FEC
S113683CBDF0ADF246F071FF7177F161D8ECD3681D
S113684C008F99B94C0B71FF61F3ECD368008F99ED
S113685CB9318F312D049AB9BDF0FAF0AC02BF688E
S113686CFF8F99B9318F312D049AB9BDF0FAF0AF7D
S113687C96B9610902ECF768008F99B9318F312D03
S113688C049AB914895C3F98008DF2ECC968008FA6
S113689C99B9318F312D049AB914895C3F98008DC4
S11368ACF29802FC2F4A00ECED67008F99B9318FF6
S11368BCB1312D049AB914895C3F9800F19802FC0B
S11368CC2F4A00EC286800AF96B9BDF2AFA0AFBD5B
S11368DCF0ADF204040046F061C8ECFD6800ADF0C4
S11368EC26F2BF68FF51FF9F99B9F6BF96B9100401
S11368FCD7300400ECEE6800FC6D6700D78FF9B953
S113690C705100BDF28FFAB9705100BDF0ADF22692
S113691CF0BDF0D78FFAB99DF24FF9B961C8EC45C7
S113692C690070510004FBB9168B705100BDF08DD9
S113693CF2819FFAB9EC496900C9F0FFFFD78FFACD
S113694CB99DF04FF9B961C8EC6B6900CDF100AD9C
S113695CF004FBB9168B705100BDF0EC6F6900C9E3
S113696CF0FFFFD7D761EFC1C3C561CF2006A810D4
S113697CBDEAA814BDE8A812D5D6B961F8ECC6696D
S113698C00B80406E8BDECA80446EC61F8ECD06948
S113699C00FAEAABBDF0ADEAB800A804BDF2FAF215
S11369AC8B9802ADF0BDF2FAF2ABBDF2FAF261FAD9
S11369BCFBF8FF617904EC936900B8008DE8980248
S11369CCFCB66C00ADE8BDF0100661EFC4C2C0614A
S11369DCCFD72004D5D6B961F8EC246A008FD7B987
S11369EC4C1F61E3EC066A00A808BDF0DAF0E67807
S11369FC0200C9F00000EC396A008FD8B99DF2701E
S1136A0C5100BDF0DAF0880A48D9B98DF2819FD8CB
S1136A1CB99FD7B9EC356A00AEF80408000402003B
S1136A2CB800E19802FCB66C00C9F001001004D760
S1136A3CA804BDF0DAF0F6780200DAF030E8037856
S1136A4C0400F678060030F831780000D7200230C4
S1136A5CCAB9B800FC3C6A001002D7D7CFA0FF100B
S1136A6C7170A1FF7148A4FF7168A1FFC9F0903A3D
S1136A7CC9F21C0000ADF004FFFFBDF0ADF261D80B
S1136A8CA104FFFFBDF2ADF2440000ADF061F84487
S1136A9C000061E8EC806A00F5F3007108A1FF7155
S1136AAC68A4FF8FA4FF5C809DF0D4F061E8ECAF88
S1136ABC6A00D761EFC1C3C561CFC9F0F000ADF076
S1136ACCBDF2EAF2896C8099C9F490FFADF4BDF67D
S1136ADCDAF6F6780000C9F6E7FFADF6BDE8EAE8A9
S1136AEC896C04997120EFFF7120EBFF3020007842
S1136AFC0000ADF0BDE8EAE8896C0199305000BFA4
S1136B0CB601C9F2B401ADF2BDF0FAF0ABBDE88D3B
S1136B1CE86C209DF08DE99DF1ADF2BDE8DAE8ADAD
S1136B2CF0780000C9F0D4FFADF0BDF2EAF2896C44
S1136B3C0199C9F2D0FFADF2BDE8EAE8895CFE998F
S1136B4C7108D8FF7108DCFF300080BF9A0130FE59
S1136B5CFFBF6AFF36BE01ABBDEC8DEC5CDF9DEA7A
S1136B6C8DED9DEBADEABB36BC01ABBDEC8DEC5CA5
S1136B7CDF9DEA8DED9DEBADEABB36B801ABBDEC08
S1136B8C8DEC5CDF9DEA8DED9DEBADEABB36BA0175
S1136B9CABBDEC8DEC5CDF9DEA8DED9DEBADEABB02
S1136BAC7128E3FFADF6BDE8EAE8895CFB99ADF426
S1136BBCBDF6FAF6ABBDE88DE89DF68DE96C809DCB
S1136BCCF7ADF4BDE8DAE8ADF6780000ADF2BDF44B
S1136BDCEAF4895CFE99ADF0BDF6EAF6895CFE999F
S1136BEC36B201ABBDF48DF46C209DF08DF59DF1A6
S1136BFCADF0BBF6BF1EBAF6BF20BAF6BF26BAF686
S1136C0CBF28BA61EFC4C2C061CFD761EFC1C36101
S1136C1CCF2008AF26BABDE8AF28BABDEAADE80468
S1136C2C0100BDE8ADEA61D8A1040000BDEAADE8FD
S1136C3CBF26BAADEABF28BAAF22BABDF4AF24BAA4
S1136C4CBDF6ADF6440000ADF461F844000061F803
S1136C5CEC856C00AF22BAB804AF24BAB806A80409
S1136C6C04FFFFBDF4A80661D8A104FFFFBDF6AD77
S1136C7CF4BF22BAADF6BF24BAAF1CBABDF44400BB
S1136C8C0061F8ECAD6C00AF26BABDF0AF28BABD0C
S1136C9CF2ADF0B800ADF2B802ADF4BDF0DAF061CB
S1136CACDA100861EFC2C061CFD788069DF44AF4AC
S1136CBC2061F3ECFE6C008F98BA9DF04AF00461ED
S1136CCCE8EC046D008DF49F4EBAC9F000008DF40D
S1136CDC4BF061E3ECF86C00A80406F0BDF6DAF0B6
S1136CECFAF68B4850BAA6F0ECDA6C00F4F0EC0728
S1136CFC6D00E4F0EC076D00CDF002D7717030023A
S1136D0C71203002713BE2713AE6710030028F510E
S1136D1CFF5C019DF0D4F061F8EC1A6D00F598BAA3
S1136D2CD77170300271203002713BE2713BE6F591
S1136D3C98BAD720068F51FF5C809DF08F51FFD4F9
S1136D4CF061F8ECC66D005C089DF08F51FFD4F037
S1136D5C61F8EC996D005C409DF0D4F061E8EC13A3
S1136D6C6F008F51FF5C049DF08F51FFD4F061F8DC
S1136D7CEC876D00F6B804EC596E005C029DF0D4FF
S1136D8CF061F8EC066F005120EC086F005C049D78
S1136D9CF08F51FF5C02D4F061F8ECB86D009DF0FB
S1136DACD4F061E8EC626F00EC996E009DF0D4F0C5
S1136DBC61E8EC0B6F00EC996E005C109DF28F5146
S1136DCCFFD4F261F8EC3E6E005C089DF08F51FF2D
S1136DDC5C40D4F061F8EC126E009DF0D4F061E8E4
S1136DECECC06E008F51FF5C049DF0D4F061F8ECA4
S1136DFC6A6F008F51FF5C029DF0D4F061E8ECC027
S1136E0C6E00ECEC6E009DF0D4F061E8EC726F0057
S1136E1C8F51FF5C049DF0D4F061F8ECEE6F008FA1
S1136E2C51FF5C029DF0D4F061E8EC726F00EC85CC
S1136E3C6F005C019DF0D4F061F8ECEE6F008F2ACA
S1136E4CBA4C0161E8ECE96F00ECAB6F00A80444A8
S1136E5C040071FF61F3EC706E00FBF8FF617904C0
S1136E6CEC596E008F71BA9DF18F70BA9DF08DF153
S1136E7C4BF061C8ECA56E008F71BA9DF0819F71C7
S1136E8CBACDF100ADF00472BAECFD6E00D52BBA9C
S1136E9C61F8EC206F00F52BBA8F97BA9DF0D4F003
S1136EAC61E8EC0B6F00E596BA71103002F598BAF4
S1136EBCECEE6F0051049F98BAF54FBAF54EBAAF89
S1136ECC94BABDF2DAF261DA8F4EBA9DF0D4F06165
S1136EDCE8ECE96E00E54EBA8DF09F50BAF52ABA8B
S1136EEC8F4FBA9DF0819F4FBACDF100ADF0045095
S1136EFCBA168B9F50FFECEE6F0051309F2CBAFCEE
S1136F0C086D00ECEE6F0051389F2CBAFC2D6D000F
S1136F1CECEE6F008F71BA9DF08F50FFCDF100DA5B
S1136F2CF04872BA8F71BA9DF18F70BA9DF08DF1E1
S1136F3C4BF061C8EC4F6F0071503002A071BAEC89
S1136F4CEE6F00712830027130300271503002E55E
S1136F5C2BBAECEE6F007120300271383002715094
S1136F6C3002ECEE6F0051039F98BAF52DBA7150B4
S1136F7C3002E52ABAECEE6F008F2DBA9DF04AF080
S1136F8C1F61F3EC6A6F008F2DBA9DF0819F2DBAAF
S1136F9C8F50FFCDF100DAF0482EBAEC6A6F008FF7
S1136FAC2DBA9DF04AF01F61F3ECC86F008F2DBA17
S1136FBC9DF0CDF100DAF08DF2482EBA8F2DBA9DEA
S1136FCCF0302EBAB8008DF0705100B802AF92BAFE
S1136FDCBDF2DAF261DAF52DBAECEE6F008DF29FA8
S1136FEC98BA1006D761CFC1C3C5C7C6C4C2C061A5
S1136FFCFC61CFC1C3C5C7C6C4C2C061FC61CFC1EB
S113700CC3C5C7C6C4C2C061FC61CFC1C3C5C7C6B2
S113701CC4C2C061FC61CFC1C3C5C7C6C4C2C06110
S113702CFC61CFC1C3C5C761DFC1C3C5C761EFC7AD
S113703C61CFFC47490061EFC661DFC6C4C2C061C1
S113704CCFC6C4C2C061FC61CFC1C3C5C7C6C4C26C
S113705CC061FC61CFC1C3C5C761DFC1C3C5C76112
S113706CEFC761CFFC5A490061EFC661DFC6C4C2E9
S113707CC061CFC6C4C2C061FC61CFC1C3C5C76106
S113708CDFC1C3C5C761EFC761CFFC043C0061EF2E
S113709CC661DFC6C4C2C061CFC6C4C2C061FC61D4
S11370ACCFC1C3C5C761DFC1C3C5C761EFC761CF5A
S11370BCFC8B3B0061EFC661DFC6C4C2C061CFC6A6
S11370CCC4C2C061FC61CFC1C3C5C761DFC1C3C544
S11370DCC761EFC761CFFC4B3C0061EFC661DFC6F3
S11370ECC4C2C061CFC6C4C2C061FC61CFC1C3C538
S11370FCC7C6C4C2C061FC61CFC1C3C5C7C6C4C2C4
S113710CC061FC61CFC1C3C5C761DFC1C3C5C76161
S113711CEFC761CFFC9E3B0061EFC661DFC6C4C202
S113712CC061CFC6C4C2C061FC61CFC1C3C5C76155
S113713CDFC1C3C5C761EFC761CFFC653B0061EF1D
S113714CC661DFC6C4C2C061CFC6C4C2C061FC6123
S113715CCFC1C3C5C761DFC1C3C5C761EFC761CFA9
S113716CFC373C0061EFC661DFC6C4C2C061CFC648
S113717CC4C2C061FC61CFC1C3C5C761DFC1C3C593
S113718CC761EFC761CFFCD13B0061EFC661DFC6BD
S113719CC4C2C061CFC6C4C2C061FC61CFC1C3C587
S11371ACC761DFC1C3C5C761EFC761CFFC783B00C2
S11371BC61EFC661DFC6C4C2C061CFC6C4C2C061C0
S11371CCFC61CFC1C3C5C761DFC1C3C5C761EFC70C
S11371DC61CFFC413C0061EFC661DFC6C4C2C06133
S11371ECCFC6C4C2C061FC61CFC1C3C5C761DFC116
S11371FCC3C5C761EFC761CFFC3F6D0061EFC661CA
S113720CDFC6C4C2C061CFC6C4C2C061FC61CFC1F9
S113721CC3C5C7C6C4C2C061FC61CFC1C3C5C76105
S113722CDFC1C3C5C761EFC761CFAF9ABA440000D1
S113723C61F8EC4C7200BDF2DAF261DAEC507200D7
S113724CFCA8510061EFC661DFC6C4C2C061CFC6E1
S113725CC4C2C061FC61CFC1C3C5C7C6C4C2C061CE
S113726CFC61CFC1C3C5C7C6C4C2C061FC61CFC178
S113727CC3C5C761DFC1C3C5C761EFC761CFFC6DAF
S113728C490061EFC661DFC6C4C2C061CFC6C4C2C7
S113729CC061FC61CFC1C3C5C761DFC1C3C5C761D0
S11372ACEFC761CFFC65520061EFC661DFC6C4C293
S11372BCC061CFC6C4C2C061FC61CFC1C3C5C761C4
S11372CCDFC1C3C5C761EFC761CFFC176C0061EFA9
S11372DCC661DFC6C4C2C061CFC6C4C2C061FC6192
S11372ECCFC1C3C5C7C6C4C2C061FC61CFC1C3C5CD
S11372FCC761DFC1C3C5C761EFC761CFFC046900B7
S113730C61EFC661DFC6C4C2C061CFC6C4C2C0616E
S113731CFC61CFC1C3C5C761DFC1C3C5C761EFC7BA
S113732C61CFFC71490061EFC661DFC6C4C2C061A4
S113733CCFC6C4C2C061FC61CFC1C3C5C761DFC1C4
S113734CC3C5C761EFC761CFFC97490061EFC66144
S113735CDFC6C4C2C061CFC6C4C2C061FC61CFC1A8
S113736CC3C5C7C6C4C2C061FC61CFC1C3C5C7C64F
S113737CC4C2C061FC61CFC1C3C5C7C6C4C2C061AD
S113738CFC61CFC1C3C5C7C6C4C2C061FC61CFC157
S113739CC3C5C7C6C4C2C061FC61CFC1C3C5C7C61F
S11373ACC4C2C061FC61CFC1C3C5C7C6C4C2C0617D
S11373BCFC61CFC1C3C5C7C6C4C2C061FC61CFC127
S11373CCC3C5C7C6C4C2C061FC61CFC1C3C5C7C6EF
S11373DCC4C2C061FCCBF800FE410061CF3690AF53
S11373EC34A40461DF30A404311E440000DD0EB16A
S11373FC61CF11A9BBA5A5A7A761DFEFED61CF6193
S113740CCF3634B430000061DF307808311E4400CC
S113741C00DD0AB161CFBBA7A761DFEFF161CFFC3F
S113742C20520000FCE0C700300000C1C1C1FC3D8B
S113743C5200C1FC61520036983434983432FEFF49
S113744CEF14369834349834320200EF09369834F9
S113745C34983432FEFF1745DD1AAB44FFFFDD0FC1
S113746C440000DD0AC1C3C5C761CAC6C4C2C01783
S113747C0316EFE2D720023034B42433B4440200B0
S113748C61F3EC9574001002D7C9F00000ADF04420
S113749C000061F8EC9274003034B4B800ADF01212
S11374AC61DAEC92740020043034B42434B4311F07
S11374BCBDF0317A9DF2CDF300ADF206F0311FBD73
S11374CCF044000061E8ECD974001004D7C9F20050
S11374DC00ADF244000061F8ECD674003034B4B85A
S11374EC00ADF0B802ADF21261DAECD6740061EFC3
S11374FCC161CFD59CBA61E8EC477500AF9EBABDAB
S113750CF030BA3424B834311FBDE8B6E8ADF046D7
S113751CE861C8EC407500A6F0ADF0BF9EBA01045A
S113752CB83416AB1261DAAF9EBABDF046E861D836
S113753CEC237500FC817400E59CBA61EFC061CF4B
S113754CD7D72002AF90AF44000061F8EC757500FA
S113755CC9F00000ADF044000061F8EC7575003022
S113756C90AFB800ADF01261DAFCB274001002D71F
S113757CD761EFC161CFAFB434BDF044FFFF61F804
S113758CECAC7500C9E8B234ADF01261DAB6E8B609
S113759CE8FAE8AC02BDF044FFFF61E8EC94750036
S11375AC61EFC061CFD7D72002A806BDF0123034EA
S11375BC32780000ADF0B800FC8A7C001002D76170
S11375CCEFC161CF2002A808BDE812303432780034
S11375DC00ADE8B800FC8A7C00ADE8B800FC4E8431
S11375EC00100261EFC061CFD761EFC1C3C561CF99
S11375FC2010A828BDE8A81ABDF2A6F2A6F2FAF249
S113760CABBDECA820BDF4A6F4A6F4FAF4ABBDF023
S113761CADEC46F061F8EC957600FAEC8B9DEA4AF9
S113762CEA2A61F8EC4B7600ADECB800ADF0B80288
S113763CFC1DA800ADF044000061F8EC957600A8A0
S113764C2616A8224761F8ECEE7600A81A0404006A
S113765C16ABBDF016ABBDF2ADF0B800A81CB80269
S113766CA81EB804A820B806A822B808A824B80AEA
S113767CA826B80CADE8B80EFAF2AC0E1661FA10E6
S113768C1061EFC4C2C061CFD7A822DAE878000039
S113769CA81E780200A81C44000071FF61D8ECD726
S11376AC7600A81C16A82207BDF2C9F00100A82672
S11376BC46F261F8EC3C7700DAE8ADF0780600F4B9
S11376CCF0101061EFC4C2C061CFD7A81C44FEFFF8
S11376DC61F8EC307700F4F0101061EFC4C2C061B3
S11376ECCFD7A824BDF2A6F2A6F2FAF2ABBDF0AD48
S11376FCEC46F061F8EC2377004AEA2A61F8EC577F
S113770C7600B800ADF0B802FC1DA800ADF0440042
S113771C0061E8EC577600A81EDAE8780400F4F06F
S113772CECE47600DAE8E6780600F4F0EC8B76000C
S113773CC9F00600ECC4760061EFC1C3C561CF206B
S113774C0AA818BDECA81ABDEAA81CBDE846EC6151
S113775CF8EC937700A81404040016ABBDF016AB38
S113776CBDF4ADF0B800A816B802ADECB804ADEA9F
S113777CB806ADE8B808FAF4AC101661FA100A6150
S113778CEFC4C2C061CFD7A814BDF2A6F2A6F2FA18
S113779CF2ABBDF0FAEAAC02BDF4ADF046F461F81C
S11377ACECD1770014894C2A61F8EC617700ADF0C8
S11377BCB800ADF4B802FC1DA800ADF044000061A3
S11377CCE8EC617700C9F00600EC89770061EFC141
S11377DCC3C561CF2008A812BDE8A814BDEAA81639
S11377ECBDECADE8B800ADEAB802ADECB804A8182D
S11377FCB806FCCC7C00D4F061E8EC2B7800FAE8F9
S113780CAC04BDF016ABBDF2ADF0B800ADEAB802F5
S113781CADECB804A818B806FAF2AC0C1661FA1060
S113782C0861EFC4C2C061CFD761EFC161CF200240
S113783CA80ABDF0A80844010061F3EC907800ADEF
S113784CF004ECFF16ABBDF244000061F8EC7B785D
S113785C00ADF0040E00BDE8B800ADF21261DAAD73
S113786CE8B800FCF09900100261EFC061CFD7AD0D
S113787CF0040E00BDE8B800FCF09900100261EFB2
S113788CC061CFD7ADF004F0FF16ABB800FC648434
S113789C0061EFC161CF2002A808BDF004DAFF1229
S11378ACE6780000A80ABDF2ADF004DCFF12ADF2DC
S11378BC780000A80CBDF2ADF004DEFF12ADF27836
S11378CC0000AFA6AFBDF2ADF004E0FF12ADF2784C
S11378DC0000AFA8AFBDF2ADF004E2FF12ADF27838
S11378EC0000ADF004F2FF12F1480000ADF004F317
S11378FCFF12512B480000ADF004F4FF12512B4839
S113790C0000ADF004F5FF125143480000ADF00443
S113791CF6FF125143480000ADF004F7FF12515525
S113792C480000ADF004F8FF12514E480000ADF0D1
S113793C04F9FF125147480000ADF004FAFF12306D
S113794C3578780000ADF004F2FFBDE8B800FC55C2
S113795CBF00ADE8B800FC817E00FCFD840061EF43
S113796CC1C3C561CF2014FC6A9D00ADF016ABBD3C
S113797CF2EAF0AA02A1BA02ADF244000061F8ECFA
S113798C687B00FAF28C1698028C1798038C189862
S113799C048C1998058C1A98068C1B98078C1C98C7
S11379AC088C1D9809F1980A51D5980B51D4980C50
S11379BC51BC980D980E51AA980F51B1981051B80A
S11379CC9811880A768802610E9DF6E4F488027692
S11379DC8DF6614E61C8ECBA7B00880B7688036126
S11379EC0E9DF7E4F58803768DF7614E61C8ECB40F
S11379FC7B008DF7768DF4610E9DF4E198138DF474
S1137A0C4BF761C8ECAD7B0088136BF59DF58DF4D9
S1137A1C9DF7880C768804610E9DE8E4F48804765E
S1137A2C8DE8614E61C8ECA77B008DE8768DF5611D
S1137A3C0E9DF5E198138DF54BE861C8ECA07B0025
S1137A4C88136BF49DF48DF59DE8880D768805619B
S1137A5C0E9DE9E4F58805768DE9614E61C8EC9AD2
S1137A6C7B008DE9768DF4610E9DF4E198138DF411
S1137A7C4BE961C8EC937B0088136BF59DF58DF491
S1137A8C9DE9880E768806610E9DEAE4F4880676F4
S1137A9C8DEA614E61C8EC8D7B008DEA768DF561C3
S1137AAC0E9DF5E198138DF54BEA61C8EC867B00CD
S1137ABC88136BF49DF48DF59DEA880F7688076125
S1137ACC0E9DEBE4F58807768DEB614E61C8EC8076
S1137ADC7B008DEB768DF4610E9DF4E198138DF49F
S1137AEC4BEB61C8EC797B0088136BF59DF58DF439
S1137AFC9DEB8810768808610E9DECE4F48808767A
S1137B0C8DEC614E61C8EC737B008DEC768DF56168
S1137B1C0E9DF5E198138DF54BEC61C8EC6C7B0074
S1137B2C88136BF49DF48DF59DEC881176880961AE
S1137B3C0E768DF4610E9DEDD4ED61F8ECC07B00F6
S1137B4CADF012F6780000ADF2041600BDE8B800F2
S1137B5CFC8CC000ADE8B800FC817E00FCFD840008
S1137B6CF19813EC2C7B00F4F4EC167B00F19813D5
S1137B7CECF47A00F4F5ECDE7A00F19813ECBC7AB0
S1137B8C00F4F4ECA67A00F19813EC847A00F4F582
S1137B9CEC6E7A00F19813EC4C7A00F4F4EC367A2F
S1137BAC00F19813EC147A00F4F5ECFE7900F4F47B
S1137BBCECE67900D4EC61E8EC4C7B00D4EB61E8A6
S1137BCCEC4C7B00D4EA61E8EC4C7B00D4E961E832
S1137BDCEC4C7B00D4E861E8EC4C7B00D4F761E816
S1137BECEC4C7B004AF60161F3EC4C7B00FAF2F6A8
S1137BFC61290ABC0AEC537B0061EFC161CF2010F0
S1137C0CA816BDF0A81ABDE8F6B808F6B80A3010E4
S1137C1C00B80CF6B80EADF016ABBDF2ADF0B80072
S1137C2CA818B802FAE8ABB804AEF804100004F8CB
S1137C3CFFB806FAF2AC0C1661FA880A5C069DF0E1
S1137C4CF4F1ADF044060061F8EC637C009DF01097
S1137C5C1061EFC061CFD7A808DAE8780000E4F02F
S1137C6C101061EFC061CFD7A80816A80C4761F8B3
S1137C7CEC857C00C9F00100D7C9F00600D72002BE
S1137C8CA806BDF012307232780000ADF0B800FCDA
S1137C9CF59C001002D761EFC161CF2002A808BD8A
S1137CACE812307232780000ADE8B800FCF59C00A4
S1137CBCADE8B800FC4E8400100261EFC061CFD770
S1137CCC61EFC161CF2004A810BDE8A80A16AC026C
S1137CDCBDF2A80C16AC02BDF0ADF246F061F8ECA6
S1137CEC1A7D0014894C2A61F8EC107D00ADF2B8B1
S1137CFC00ADF0B802FC1DA800ADF044000061F822
S1137D0CEC1A7D00F4F0100461EFC061CFD7A80E1B
S1137D1CDAE87800003004007806003006007802B7
S1137D2C00E4F0100461EFC061CFD761EFC1C3610F
S1137D3CCF2006A80EBDEAA810BDE8FAEAAC02BD35
S1137D4CF0FAE8AC02BDF2ADF046F261F8EC947DC9
S1137D5C0014894C2A61F8EC7E7D00ADF0B800ADBE
S1137D6CF2B802FC1DA800ADF044000061F8EC94DC
S1137D7C7D00A81444030061E3EC9F7D00F4F01033
S1137D8C0661EFC2C061CFD7E4F0100661EFC2C048
S1137D9C61CFD7FAE8ABBDF0ADE8B800ADEAB802F4
S1137DACA812B804FAF0AC0A1661FA100661EFC214
S1137DBCC061CFD72006A80ABDF0A81616A8124792
S1137DCC61F8EC367E00FAF0AC02B804A81016ACDC
S1137DDC02BDF0A80446F061F8EC137E00A804BDC3
S1137DECF214894C2A61F8EC0E7E00ADF2B800ADA9
S1137DFCF0B802FC1DA800ADF044000061F8EC13CF
S1137E0C7E00F4F01006D7A812BDF2A818BDF0122B
S1137E1CADF2780000A80E780200C9F20100DAF085
S1137E2CADF2780600F4F01006D7FAF0AC02BDF20D
S1137E3CB804A81416AC02BDF0ADF246F061F8EC2F
S1137E4C717E00EAF2894C2A61F8ECD87D00ADF21F
S1137E5CB800ADF0B802FC1DA800ADF04400006100
S1137E6CE8ECD87D00A80EBDF2A81812ADF2780487
S1137E7C00EC0E7E0061EFC1C3C561CF2014FC6A17
S1137E8C9D00ADF016ABB810A81E04EAFFB812A8FA
S1137E9C1E040000168B9800A81EBDF6A6F6FAF672
S1137EAC8B9801A81EBDF2A6F2A6F2FAF28B9802E8
S1137EBCA81E040300168B9803A81E040400168B3A
S1137ECC9804A81E040500168B9805A81E04060029
S1137EDC168B9806A81E040700168B9807F19808B1
S1137EEC51D5980951D4980A51BC980B980C51AAA5
S1137EFC980D51B1980E51B8980F88087688006186
S1137F0C0E9DF2E4EA8800768DF2614E61D8EC2085
S1137F1C7F00F4EA8809768801610E9DF3E4EB880E
S1137F2C01768DF3614E61D8EC3A7F00F4EB8DF35E
S1137F3C768DEA610E9DEAE4EC4BF361D8EC4F7F4D
S1137F4C00F4EC8DEB6BEC9DEB8DEA9DF3880A76DB
S1137F5C8802610E9DF4E4EA8802768DF4614E6128
S1137F6CD8EC737F00F4EA8DF4768DEB610E9DEB07
S1137F7CE4EC4BF461D8EC887F00F4EC8DEA6BEC08
S1137F8C9DEA8DEB9DF4880B768803610E9DF5E4D8
S1137F9CEB8803768DF5614E61D8ECAC7F00F4EB85
S1137FAC8DF5768DEA610E9DEAE4EC4BF561D8EC27
S1137FBCC17F00F4EC8DEB6BEC9DEB8DEA9DF588A9
S1137FCC0C768804610E9DF6E4EA8804768DF661DD
S1137FDC4E61D8ECE57F00F4EA8DF6768DEB610EFC
S1137FEC9DEBE4EC4BF661D8ECFA7F00F4EC8DEAF3
S1137FFC6BEC9DEA8DEB9DF6880D768805610E9DE4
S113800CF7E4EB8805768DF7614E61D8EC1E8000A1
S113801CF4EB8DF7768DEA610E9DEAE4EC4BF76197
S113802CD8EC338000F4EC8DEB6BEC9DEB8DEA9D7E
S113803CF7880E768806610E9DE8E4EA8806768D4C
S113804CE8614E61D8EC578000F4EA8DE8768DEB4C
S113805C610E9DEBE4EC4BE861D8EC6C8000F4EC25
S113806C8DEA6BEC9DEA8DEB9DE8880F76880761B1
S113807C0E768DEA610E9DE9D4E961F8ECB18000CD
S113808CA81044000061E8EC5F8100A812BDF4ADB7
S113809CF012ADF4780000A810BDF0101461EFC418
S11380ACC2C061CFD7D4E861E8EC8C8000D4F7610E
S11380BCE8EC8C8000D4F661E8EC8C8000D4F5619B
S11380CCE8EC8C8000D4F461E8EC8C8000D4F3618F
S11380DCE8EC8C80004AF20161F3EC8C8000A81E61
S11380EC04F4FF16ABBDF244000071FF61D8EC56EA
S11380FC8100A6F2ADF2BDF6A81EBDF404F4FF1285
S113810CADF6780000EAF0AA02B1BA02A81016A8DB
S113811C124761F8EC3F8100A810BDF2ADF404F2F3
S113812CFF12ADF2780000A812BDF6ADF012ADF658
S113813C780000A81EBDF2B6F2B6F2FAF2ABBDF0AE
S113814C101461EFC4C2C061CFD7E626F2BDF2ECC5
S113815C008100FCFD840061EFC1C3C561CF201414
S113816CFC659D00ADF016ABBDEC44000061F8EC71
S113817CA28300168C1698028C1798038C189804FA
S113818C8C1998058C1A98068C1B98078C1C9808CB
S113819C8C1D9809F1980A51D5980B51D4980C510F
S11381ACBC980D980E51AA980F51B1981051B898CB
S11381BC11880A768802610E9DF2E4EA8802768DB3
S11381CCF2614E61C8ECFA8300880B768803610E69
S11381DC9DF3E4EB8803768DF3614E61C8ECF48374
S11381EC008DF3768DEA610E9DEAE198138DEA4BCE
S11381FCF361C8ECED830088136BEB9DEB8DEA9D6A
S113820CF3880C768804610E9DF4E4EA8804768D78
S113821CF4614E61C8ECE783008DF4768DEB610E4E
S113822C9DEBE198138DEB4BF461C8ECE083008873
S113823C136BEA9DEA8DEB9DF4880D768805610E2F
S113824C9DF5E4EB8805768DF5614E61C8ECDA8317
S113825C008DF5768DEA610E9DEAE198138DEA4B5B
S113826CF561C8ECD3830088136BEB9DEB8DEA9D11
S113827CF5880E768806610E9DF6E4EA8806768DFE
S113828CF6614E61C8ECCD83008DF6768DEB610EF4
S113829C9DEBE198138DEB4BF661C8ECC68300881B
S11382AC136BEA9DEA8DEB9DF6880F768807610EB9
S11382BC9DF7E4EB8807768DF7614E61C8ECC083BB
S11382CC008DF7768DEA610E9DEAE198138DEA4BE9
S11382DCF761C8ECB9830088136BEB9DEB8DEA9DB9
S11382ECF78810768808610E9DE8E4EA8808768D94
S11382FCE8614E61C8ECB383008DE8768DEB610EBA
S113830C9DEBE198138DEB4BE861C8ECAC830088D2
S113831C136BEA9DEA8DEB9DE88811768809610E52
S113832C768DEA610E9DE9D4E961E8EC008400D411
S113833CE861E8EC008400D4F761E8EC008400D434
S113834CF661E8EC008400D4F561E8EC008400D418
S113835CF461E8EC008400D4F361E8EC0084004A96
S113836CF20161F3EC008400FAECAC0ABDF24400B7
S113837C0071FF61D8EC1C8400B6F2ADF24400002D
S113838C61F8EC3B840044FFFF61F8EC4A8400DAAA
S113839CECADF2780A00101461EFC4C2C061CFD7FF
S11383ACF19813EC1B8300F4EAEC058300F19813A9
S11383BCECE38200F4EBECCD8200F19813ECAB828D
S11383CC00F4EAEC958200F19813EC738200F4EB60
S11383DCEC5D8200F19813EC3B8200F4EAEC25820C
S11383EC00F19813EC038200F4EBECED8100F4EA59
S11383FCECD58100ADF012F6780000ADEC0416005B
S113840CB800FCDDC000101461EFC4C2C061CFD74A
S113841CA6F2ADF244000061E8EC9B8300FAECACEC
S113842C08BDF4ADF012ADF4780000EC9B8300FAB7
S113843CECAC08BDF2ADF012ADF2EC048400FCFD22
S113844C84002002A80644000061F8EC618400B8A2
S113845C00FC819D001002D7202A302E8EB81230D9
S113846C6034B814AEF8BDF0042A00B816309A84FF
S113847CB818ADF0B81A042A0004DCFFB800FCD715
S113848CBE00E6B808A82E1261DAFC615200A80AF4
S113849CB802A80CB804A808BDF044000061F8ECBC
S11384ACC08400B6F0ADF044000061F8ECD1840057
S11384BCFC615200A802B800FC817E00300200B8B6
S11384CC08FC615200ADF0B808FC638100A80444B8
S11384DCFFFF61F8ECF18400A802B80030FFFFB88C
S11384EC08FC2FC000A802B800A804B808FC8497A4
S11384FC002002AFA8AFB800FC648400A804126189
S113850CDAFCFD84002002AFA6AFB800FC0885009D
S113851C61EFC1C3C561CF201AA826BDECA824BD48
S113852CF2F6B804F6B806F6B810EC3E8500A800CE
S113853CBDF2ADF2A1B800ADF2168B98035C7F9D31
S113854CF4F4F58DF59DF69DF7A810B80C8DF698FE
S113855C0E980FA80CBDF0A80EBDF28DF075ADF6FB
S113856CDAF4D4FDDD07311C61EE95DFF9BDEA13B5
S113857CBDE888046BE8980888056BE998098806B7
S113858C6BEA980A88076BEB980BA808B804A80A3E
S113859CB806A810040700B81088034BF571FF71D6
S11385AC77F561D8EC3A85009DF2A800BDF0A810CF
S11385BC441F0061F3EC1A86005AF24061F8EC1A7D
S11385CC8600A810B8128DF69814981530FFFFB8D1
S11385DC1630FFFFB818A812BDE8A814BDEA8DE840
S11385EC75A81612A818D4FDDD07311C61EE95DFB1
S11385FCF9BDF613BDF488046BF4980488096BF583
S113860C9805880A6BF69806880B6BF79807A804EC
S113861CDAEC780000A806780200101A61EFC4C2E4
S113862CC061CFD761EFC1C3C561CF200AA814BD07
S113863CE8A816BDEAA818BDEC16ABB808FAEAAB64
S113864CBDF0ADEAB800FAF0AC041661FAD4F061EE
S113865CF8EC678600A80816ABB808FAE8ABBDF0CE
S113866CADE8B800ADEAB802AEF8040A0004FEFFA7
S113867CB804E6B806FAF0AC081661FAD4F061F85E
S113868CEC978600A808DAEC780000100A61EFC4B5
S113869CC2C061CFD761EFC1C3C561CF2022882C82
S11386AC9DEC4AEC5061F8EC1A88005C0F9DF04A82
S11386BCF00461F8EC3D89004AF00461F3EC1C878A
S11386CC004AF00161F8ECA28800D4F061F8EC3EA9
S11386DC88004AF00261F8EC0088004AF00361E873
S11386ECEC728800A830BDEA168B9808ADEAA11686
S11386FC8B9809ADEA040200168B980AADEA0403C0
S113870C00168B980BADEA040400BDF0EC8C8700CA
S113871C4AF00A61F8EC5888004AF00A61E3ECDD8F
S113872C87004AF00B61F8EC7688004AF00C61E89B
S113873CEC728800A830BDF4168B9808ADF4A11621
S113874C8B9809ADF4040200168B980AADF404035B
